:020000040800F2
:1000000000000320890500086D1D00086F1D000811
:10001000711D0008731D0008751D00080000000018
:10002000000000000000000000000000B17A00089D
:10003000771D000800000000417B0008A57B000838
:10004000D9050008D9050008D9050008D905000818
:10005000D9050008D9050008D9050008D905000808
:10006000D9050008D9050008D9050008D9050008F8
:10007000D9050008D9050008D9050008D9050008E8
:10008000D9050008D9050008D9050008D9050008D8
:10009000D9050008D9050008D9050008D9050008C8
:1000A000D9050008D9050008D9050008D9050008B8
:1000B000D9050008D9050008D9050008D9050008A8
:1000C000D9050008D9050008D9050008D905000898
:1000D000D9050008D9050008D9050008D905000888
:1000E000D9050008D9050008D9050008D905000878
:1000F000D9050008D9050008D9050008D905000868
:10010000D9050008D9050008D9050008D905000857
:10011000D9050008D9050008791D0008D90500088F
:10012000D9050008D9050008D9050008D905000837
:10013000D9050008D9050008D9050008D905000827
:10014000D9050008D9050008D9050008D905000817
:10015000D9050008D9050008D9050008D905000807
:10016000D9050008D9050008D9050008D9050008F7
:10017000D9050008D9050008D905000800000000CD
:10018000D9050008D9050008D9050008D9050008D7
:10019000D9050008D9050008D9050008D9050008C7
:0C01A000851D0008D9050008911D00080D
:1001B00010B5054C237833B9044B13B10448AFF3A1
:1001C00000800123237010BDAC010020000000005E
:1001D00050FB010808B5034B1BB103490348AFF3BB
:1001E000008008BD00000000B001002050FB0108A5
:1001F00001F0FF01102A2BDB10F0070F08D010F8D8
:10020000013B013A8B422DD010F0070F42B3F6D1DB
:10021000F0B441EA012141EA014122F007047FF0F4
:1002200000070023F0E80256083C85EA010586EA4B
:10023000010685FA47F5A3FA87F586FA47F6A5FA87
:1002400087F68EB9EED1F0BC01F0FF0102F0070293
:1002500032B110F8013B013A83EA010313B1F8D13E
:100260000020704701387047002D06BF354603381F
:10027000073815F0010F07D1013015F4807F02BF58
:10028000013015F4C03F0130F0BC0138704700BFA9
:1002900053B94AB9002908BF00281CBF4FF0FF31ED
:1002A0004FF0FF3000F06EB9ADF1080C6DE904CEEF
:1002B00000F006F8DDF804E0DDE9022304B0704741
:1002C0002DE9F047089D04468C46002B40F08380C2
:1002D0008A42174647D9B2FA82F242B1C2F12000EF
:1002E00024FA00F09140974040EA010C94404FEA14
:1002F0001748230CBCFBF8F61FFA87FE08FB16C153
:1003000043EA014306FB0EF1994209D9FB1806F1B5
:10031000FF3080F01981994240F21681023E3B4441
:100320005B1AA4B2B3FBF8F008FB103344EA0344B1
:1003300000FB0EFEA64509D93C1900F1FF3380F001
:100340000581A64540F2028102383C4440EA06405D
:10035000A4EB0E0400261DB1D4400023C5E90043E0
:100360003146BDE8F08702B9FFDEB2FA82F2002A18
:1003700050D1CB1B4FEA174E1FFA87F80126B3FB6B
:10038000FEFC210C0EFB1C3341EA034108FB0CF37D
:100390008B4207D979180CF1FF3002D28B4200F260
:1003A000E9808446C91AA3B2B1FBFEF00EFB10111E
:1003B00043EA014408FB00F8A04507D93C1900F1C5
:1003C000FF3302D2A04500F2D9801846A4EB0804FE
:1003D00040EA0C40BFE78B4209D9002D00F0B18004
:1003E0000026C5E9000130463146BDE8F087B3FA82
:1003F00083F6002E4AD18B4202D3824200F2B880AB
:10040000841A61EB030101208C46002DA8D0C5E9B8
:10041000004CA5E7C2F1200320FA03F6974001FA49
:1004200002F04FEA174ED9403043030CB1FBFEF601
:100430001FFA87F80EFB161143EA014306FB08F189
:10044000994204FA02F409D9FB1806F1FF3C80F046
:100450008D80994240F28A80023E3B445B1A81B211
:10046000B3FBFEF00EFB103341EA034100FB08F33F
:100470008B4207D9791800F1FF3C73D28B4271D9B6
:1004800002383944CB1A40EA064678E7C6F1200C18
:1004900003FA06F422FA0CF31C4320FA0CF701FAD3
:1004A00006F34FEA144E21FA0CF11F433B0CB1FB4B
:1004B000FEF91FFA84F80EFB191143EA014109FB0A
:1004C00008FA8A4502FA06F200FA06F308D961181A
:1004D00009F1FF3048D28A4546D9A9F102092144E1
:1004E000A1EB0A01BFB2B1FBFEF00EFB101147EA0F
:1004F000014700FB08F8B84507D9E71900F1FF31BB
:100500002ED2B8452CD90238274440EA0940A7EB3F
:100510000807A0FB02894F45C64649461AD317D0A3
:100520005DB1B3EB0E0267EB010707FA0CFCF2407A
:100530004CEA0202F740C5E9002700263146BDE833
:10054000F0872E4628460BE70646E9E61846FDE604
:100550004345E5D2B8EB020E69EB04010138DFE751
:100560000846D2E760468DE78146B9E7664675E7FB
:1005700030464AE7ACF1020C394413E702383C44F8
:1005800024E700BF704700BFDFF834D0002103E04C
:100590000C4B5B58435004310B480C4B42189A42A9
:1005A000F6D30B4A02E0002342F8043B094B9A427F
:1005B000F9D304F08DFA1EF09BFA00F055FE704757
:1005C000000003209C1E0B0800000020AC0100204E
:1005D000AC010020E8A80020FEE700F017BC00F006
:1005E00085BC704710B5042104461DF019FC204657
:1005F00010BD000038B50C4B0C4C18800C4B822001
:1006000019806368984740F6110398420AD1094D52
:1006100023682C60822098472B688220DB689847EB
:10062000002038BD0120FCE7C80100209400002014
:10063000CA010020CC0100204FF4A071F020FFF788
:10064000D9BF0000F7B52D4D2B6804461B698220E9
:10065000984780B22080002843D02B680DF1060215
:100660005B6901A982209847BDF80620A2F5B47203
:1006700092B20A2A37D90B23B2FBF3F2204B1B8824
:100680009A4201D95A1E92B2BDF8043040F6B831F0
:100690008B422AD8C3F571630E339BB20F21B3FB93
:1006A000F1F3184909888B4201D94B1E9BB2164EB3
:1006B000164D30682F68834281B28CBF591AC91A0F
:1006C000B8B2BA428CBF101A801A89B280B2014403
:1006D0000529C8BF33603368C8BF2A6063802B68B0
:1006E000A38003B0F0BD0022CEE7C3F56D630833ED
:1006F0009BB20E2BD2D80023D9E700BFCC0100203B
:10070000CA010020C8010020D0010020D40100202F
:1007100037B568460D461446FFF794FFBDF8000054
:1007200030B1BDF802302B60BDF8043023600120E9
:1007300003B030BD704770477047012380F87410D4
:1007400080F8753070470020704700207047836B39
:100750000BB10846184770474FF6FF707047406866
:1007600003689B69184770477047704700F060BC8A
:1007700008B5036804469B6F9847236820461B6FA3
:10078000984700F0D7F8236820469B6E98472920A9
:1007900001F028F800F0CEF8236820469B6E9847B9
:1007A000F8E710B504460AF07BFB23682046D3F82F
:1007B000A030BDE81040184700F02CBC00F030BC61
:1007C00000F054BC00F002BC00F054BC00F05CBC73
:1007D00000F006BC08B531B90A4B0B4A0B484FF480
:1007E00025711EF03BF9C0E90F12003A0849436435
:1007F00018BF01220A70003B064A18BF012313707C
:1008000008BD00BF88FC0108C0FC01080EFD0108FE
:100810007EA300207FA3002009F0FABC10B57C2144
:1008200004461DF0FDFA204610BD90F877301BB14C
:10083000406803681B6818471846704730B590F841
:10084000341090F87440104B8C421A780DD05AB97D
:100850000E4A0F490F4814880F4D0C8001881180F3
:100860002980048001221A7030BD002AFCD009487A
:10087000074A01881180054A074D14882C80118091
:1008800004800022EFE700BF78A3002074A30020BB
:100890007AA3002076A300207CA30020012108B5C4
:1008A0000022084606F0DEFD0A4B186028B90A4B04
:1008B0000A4A27210A481EF0D1F80022042101200B
:1008C00006F096FE074B186018B9074B034A2B2118
:1008D000F0E708BDDC01002020FE010869FE0108E8
:1008E00098FE0108D8010020E6FE0108024B4FF0F7
:1008F000FF31186806F00CBEDC010020014B1868BF
:1009000006F040BEDC010020024B0021186806F012
:10091000FFBD00BFDC010020FFF7F0BF0348044922
:10092000006800231A4606F0A9BE00BFD8010020C7
:100930000400002013B5084C00231A4601A92068C2
:1009400006F0DEFE20684FF0FF33002201A906F01A
:10095000D7FE02B010BD00BFD801002006F008BDD0
:1009600003685B6C18470120704703689B6A18474F
:1009700082B0002301930D4B1A6B42F400021A63FC
:100980001A6B02F400020192019A1A6942F4000201
:100990001A611A6922F400021A61054B054A1A61AC
:1009A000054B4FF080629A6002B0704700380240F9
:1009B000D8A70020C509000800E100E040F2EF30B0
:1009C00070470000024B1B68586803685B69184752
:1009D00080A3002008B50B280BD8DFE800F0120632
:1009E000100A0A0A0A0808080808012008BD05209C
:1009F000FCE7054B054A064865211EF02FF800204C
:100A0000F4E70220F2E700BF28FF010843FF0108D6
:100A10008FFF010808B50A2809D8DFE800F01006A2
:100A20000E080808080606060600012008BD054B4A
:100A3000054A064886211EF011F80020F6E702203C
:100A4000F4E700BF28FF0108DBFF01088FFF010862
:100A50002DE9F84391F81D800C464046FFF7BAFF98
:100A6000A77F05463846FFF7B5FF06463846FFF72D
:100A7000D1FFA18A628B534B521A1A649A61228B5E
:100A8000521A1A61E28A586342EA01425A642169A1
:100A90006268D963DA60D4F800C094F81C90BCF1A5
:100AA000800F4FEA09629E463BD015D8BCF1200F5B
:100AB00045EA020079D0BCF1400F76D0BCF1040FBA
:100AC0002BD0404B2A4342F40032B845DA6114BFC0
:100AD0003D4A40F201221EE0BCF5807F07D0BCF504
:100AE000007FEED142F4003242F0090203E042F40A
:100AF000003242F00A02DA61E0680202440102F4C4
:100B0000780204F47C44C0002243C0B202431A625B
:100B10002E4A5E6259611A6043E040F40030D861A9
:100B2000F6E7A0682A4342F40032041DDC62DA6171
:100B300002785E62596142B1012A1CD0244B254AD9
:100B400025484FF488711DF089FF4288D969501EED
:100B500021F47F4222F0100242EA0022DA610125EC
:100B6000184CE36943F02003E361E3699B0613D566
:100B7000FFF7F4FEF9E74288D969501E21F47F425D
:100B800022F0100242EA0022B9F1FF0542F0100201
:100B900018BF0125DA61E3E71023A3601DB10B4BF9
:100BA0002360BDE8F883084BFAE7084B40F40030B7
:100BB000CEF81C00CEF82460CEF81410CEF8003029
:100BC000EFE700BF00B00240010201000102020095
:100BD00028000208420002088FFF0108F8B58E7F46
:100BE0000C463046FFF716FFA78AE18A628B1E4B40
:100BF0002569586341EA0741D21B5964DD631A64D1
:100C00002168082918D19A611A615862217F174A10
:100C100042EA0162DA61E1680A02480102F47802FC
:100C200000F47C40C9000243C9B20A431A62104A68
:100C30005D61DD601A60F8BD0022D8611A61E1686B
:100C40001EB99963084B0B4AF4E70A02480102F403
:100C5000780200F47C40C900C9B202430A43217FF4
:100C600042EA01629A63EDE700B002400900010028
:100C70000102020001020300054B0360054B4FF027
:100C80008062C3F88820BFF34F8FBFF36F8F704728
:100C90008C00020800E100E010B50446FFF7ECFF0D
:100CA00020464FF442611DF0BBF8204610BD000005
:100CB00070B5044625460A4B0C300026606026724B
:100CC000667245F8203B602229460AF023FA04F5B3
:100CD0004263EE602035AB42FBD1204670BD00BFC1
:100CE0008C0002080120704714207047142303FB76
:100CF000010008307047142303FB010008307047DF
:100D0000012070474FF4956070474FF4956303FBE3
:100D10000100083070474FF4956303FB0100083071
:100D20007047012070471020704700EB0110083019
:100D3000704700EB011008307047084601F0D4B945
:100D400010B5034B0360044608F0FAFC204610BDC2
:100D50004401020810B50446FFF7F2FF20461C21AB
:100D60001DF05EF8204610BD10B5034B036004462D
:100D700008F0E6FC204610BD1001020810B504463C
:100D8000FFF7F2FF20464FF496611DF049F8204628
:100D900010BD000010B5034B0360044608F0D0FC02
:100DA000204610BDDC00020810B50446FFF7F2FF34
:100DB000204618211DF034F8204610BD10B5084B10
:100DC0000360044600F2DC40FFF7BAFF04F12C0098
:100DD000FFF7CAFF04F11400FFF7DCFF204610BD47
:100DE0007801020808B50248FFF7E8FF08BD00BF18
:100DF000E401002010B50446FFF7E0FF204640F272
:100E000054611DF00DF8204610BD00002DE9F3419E
:100E100001F036F8054601F037F800240146234674
:100E200028462246009411F029F9254B254A264DE3
:100E30001A60204603F008F8244811F061F82B7876
:100E4000BFF35B8FDB0735D428461CF0EBFF88B37C
:100E50001F4C204B236004F2FC4604F1140004F103
:100E60002C0804F2DC476060C4F80880E760266163
:100E700008F068FC184B6361404608F063FC174BB0
:100E8000E362384608F05EFC154BC4F8DC3404F528
:100E90009F6003F059F8224604F59F61304603F045
:100EA00049F8304601F020F928461CF0C7FF0D48EC
:100EB0001DF0F2FD0C4802B0BDE8F041FFF756BC52
:100EC000DCA30020D8140020E0010020080000204E
:100ED000E401002078010208DC0002081001020889
:100EE00044010208E50D00085C1400200148FFF7EA
:100EF0003FBC00BF5C14002070B5244C244E254B31
:100F0000254D23603046FFF7D3FE284614F03AF90A
:100F1000224B2348DC6000224FF48071C3E9121297
:100F20002049036020481A85C3E91912C3E9016505
:100F30004FF080711D4D5967F024012104804FF45A
:100F4000A070C3E90422C3E90622C3E90822C3E969
:100F50000E22C3E91022C3E91422C3E9162283F842
:100F60002A20DA621A861A6683F86C201A6783F8D8
:100F7000781028800E4D83F834102A700D4A1480A2
:100F80000D4A10800D4A1A6070BD00BF380800205D
:100F90003C08002078FC0108DC1400205C140020D0
:100FA00080A300200100000174A3002076A300208C
:100FB00078A300207AA300207CA300205CFD010818
:100FC0000148FFF759BE00BF3C080020034B9022A8
:100FD00083F85A2383F85823704700BF00E100E0EC
:100FE000094A0A49D3680A48C3F30A03013B9BB282
:100FF0000B801169C1F30A01013901801364536B3D
:1010000043F0010353637047006801405615002008
:1010100054150020014B986A704700BF8468014056
:10102000024B0122996243F8602C704784680140AA
:1010300070B5044609F03FF92368DD6D0DF080FDC1
:1010400001462046A8472368054AD3F88050204629
:10105000AC460023BDE87040A2F51631604700BFE2
:10106000005802D009F00EB909F018B909F0D6B845
:1010700009F02FBA034B4FF080629A604FF08072F4
:101080009A60704700E100E0084B4FF08062C3F8BF
:101090008820BFF34F8FBFF36F8F4FF08072C3F87C
:1010A0008820BFF34F8FBFF36F8F704700E100E0E0
:1010B000134B144A1B6C11888B4210B5124C13D180
:1010C000124B198804F078FD226892F866300133DB
:1010D00082F86630FFF722FC206809F0E1FEBDE8E7
:1010E00010400020FFF726BB04F066FD0020FFF74C
:1010F00022FB20680368BDE81040DB69184700BF89
:10110000006801405615002080A3002054150020DF
:1011100007B5064BADF806001B68054801220DF126
:10112000060105F092FC03B05DF804FB58000020B6
:1011300074A6002008B5084D084C29460022204618
:1011400005F025FB06490022204605F045FB4FF43B
:10115000FA7006F02BF9F0E794A70020B0A7002062
:101160001CA6002008B50B4D0B4C0C4928684FF00D
:10117000FF33002206F0C4FA09490022204605F098
:101180008EF908490022204605F0FAF90A2006F0F7
:101190000DF9EAE7D0A70020B0A700201CA8002086
:1011A00094A700201CA6002070B50024A0B0214602
:1011B000142203A8CDE90A440C941DF0DBFC21465F
:1011C000302214A81DF0D6FC254B01941A6C42F075
:1011D00080521A641B6C03F080530193019B214BD6
:1011E00002941A6842F440421A601B6803F44043B8
:1011F00002930922029B4FF48033CDE90823022594
:101200000123CDE90D354FF480010823CDE90F13FB
:1012100004264FF4A87308A8CDE91135139604F0FD
:10122000E9FC0F23CDE903354FF4A0504FF4805370
:10123000CDE90603052103A8059404F0B1FE282397
:101240001493C02318934FF400354FF4007314A87F
:10125000CDE91D531A9604F06DFF20B070BD00BF9C
:1012600000380240007000402DE980489DB003F036
:101270003DFCFFF799FF142200210FA800241DF068
:1012800079FCC54B01941A6BC448C54E42F0040268
:101290001A631A6B02F004020192019A02941A6B0B
:1012A00042F020021A631A6B02F020020292029AA4
:1012B00003941A6B42F080021A631A6B02F08002E8
:1012C0000392039A04941A6B42F001021A631A6B98
:1012D00002F001020492049A05941A6B42F0020291
:1012E0001A631A6B02F002020592059A06941A6BB1
:1012F00042F040021A631A6B02F040020692069A0C
:1013000007941A6B42F010021A631A6B02F0100273
:101310000792079A08941A6B42F008021A631B6B33
:1013200003F00803089322460421089B03F066FE9D
:101330009C482246802103F061FE22469A484FF4E1
:101340004051012503F05AFE02274FF0040893484C
:1013500011940FA9CDE90F85129703F065FD802345
:1013600090480FA9CDE90F35CDE9114403F05CFD9C
:101370000FA94FF440538C48CDE90F35CDE9114703
:1013800003F052FD89488A4B036003F041FC894A0F
:10139000894B3462C6E9002330464FF48043C6E9E6
:1013A0000434C6E90244C6E9064404F009F81021F1
:1013B000304604F045FA2146304604F060FA7F4892
:1013C0007F49804E84624FF48273C0E900134FF06E
:1013D000180B4FF40073C0E9063B0A23C362C0E94F
:1013E0000244C0E90444C0E9084405F0F1FA764B30
:1013F0000F97C6E9003510204023C6E904034FF4D7
:10140000C073C6E906344FF40063C6E908344FF4EC
:1014100000534FF0030AB3620FA907233046CDE90A
:10142000103812934FF00809C6E90248CDE913A716
:10143000159705F0F3F94FF6FF720AA93046CDE98A
:101440000B9509940A950D9405F008FA284603F0C7
:1014500079FB4FF6FF720AA93046CDE90A79CDE94A
:101460000C5405F0FBF94FF6FF720AA93046CDE99E
:101470000AA9CDE90C8405F0F1F94FF40C73099336
:10148000099B0D934FF6FF720AA93046CDE90A89F0
:101490000C9505F0E3F940F26A51304605F0F5F994
:1014A0004A4E214634220FA81DF064FB484BB486F7
:1014B0001D2240F20D1CC6E9072A40F24312C6E97C
:1014C00009C240F2171EC6E9003440F24712092350
:1014D0003046C6E90BE2C6E90535C6E90244346187
:1014E00086F8364004F070FA4FF48063F0214FF430
:1014F000A0720520CDE91630CDE91014CDE91227F0
:10150000CDE918414FF0FF0A0FA91A923046224642
:10151000304E0F94CDE914A4ADF86C408DF86E40B8
:1015200004F01DFB2C4A32601268904732682B4E43
:10153000D26890472A4AC6E90A47C6E90C443046B1
:10154000C6E90024C6E9027403F072FB294630465E
:1015500003F026FC142221460AA81DF00BFB2146AD
:1015600028220FA81F4E00941DF004FB1E4AB461F0
:10157000C6E9002430467F22C6E9022AC6E90444AF
:1015800004F034FF2A460AA93046CDE90D44ADF8EF
:1015900028408DF82A4029E0003802400008024027
:1015A00020A6002000000240000C0240E0A600201F
:1015B00000300240005C0040A086010074A60020BC
:1015C0000050014020A80020400100A0ECA600200F
:1015D00000680140581500205C000020D8A70020BA
:1015E00000B00240B0A700200028004004F057FFE0
:1015F000304A009269462A46304604F0C1FF4FF453
:1016000080720FA9189230462A46CDE91244CDE9DE
:101610001444ADF83C408DF83E40109416948DF87B
:101620005C5005F00DF8FEF7D8FF234942F2100296
:101630000A8030228A7030462A46C1E9034404F009
:101640002EFF1E4909232A4630468B7081F8008000
:1016500081F8019081F803B004F092FF43F2F22286
:101660002946304605F0D5F805F0F2FD144805F09E
:10167000B7FE144B144A18602146144805F022FEA8
:10168000134B144A18602146134805F01BFE134BF8
:10169000134A18602146134805F014FE124B134AF2
:1016A00018602946284605F0A3FF114B186005F085
:1016B000E9FDFEE701010100CCA60020A8A700205B
:1016C0000802020818A80020CC010208DF05000863
:1016D000D4A700200C00002035110008ACA7002082
:1016E0003400002065110008E8A60020F00102087F
:1016F000D0A70020704770477FB5094B8DF81720A1
:101700001B6802930DF117020123009201930A4610
:101710000146044803F0FCFE07B05DF804FB00BF7F
:101720003000002020A600207FB500238DF8173060
:10173000084B1B6802930A4601230DF11701009123
:1017400001930146044803F073FF9DF8170007B0AA
:101750005DF804FB3000002020A600201FB5084CD7
:1017600024680092CDE901340A4601230146054868
:1017700003F05EFF003818BF012004B010BD00BFA9
:101780003000002020A6002003F0DCB908B5064890
:101790000022042103F032FCBDE808400248012287
:1017A000042103F02BBC00BF0008024038B50B4DEC
:1017B000044601220A484FF4005103F01FFC0022A6
:1017C0000421284603F01AFC2046FFF7A1FC284616
:1017D0000122BDE83840042103F010BC000802409B
:1017E000000C024038B50B4D044600220A484FF465
:1017F000005103F003FC00220421284603F0FEFB05
:101800002046FFF785FC28460122BDE83840042128
:1018100003F0F4BB00080240000C0240F7B5144E80
:10182000144F05460C4630460022042103F0E6FB27
:1018300000224FF40051384603F0E0FB2846FFF742
:1018400067FC0D4B0D481B68224601A905F090FA74
:10185000384601224FF40051019C03F0CFFB304683
:101860000122042103F0CAFB204603B0F0BD00BFF3
:1018700000080240000C02405800002074A600201E
:1018800003F060B90268034B9A4201D103F048B9F2
:10189000704700BF0010004082B00E4B0022009243
:1018A000596C41F480415964596C01F480410091B4
:1018B00000990192196C41F0805119641B6C03F07E
:1018C00080530193019B0F216FF0010002B003F0E0
:1018D0005FB900BF003802400268094B9A4282B0EB
:1018E0000BD100230193074B1A6B42F480521A6309
:1018F0001B6B03F480530193019B02B0704700BF40
:10190000003002400038024007B50F4B02689A428F
:1019100016D10022A3F5F0430192196B41F40001A6
:1019200019631B6B03F40003019305215A20019BEB
:1019300003F02EF95A2003B05DF804EB03F05AB916
:1019400003B05DF804FB00BF00B002402DE9F04396
:10195000044689B01422002103A81DF00BF9226867
:10196000244B9A4243D1244C244800250095236BF4
:1019700043F004032363236B03F004030093009BF1
:101980000195236B43F001032363236B03F00103F1
:101990000193019B4FF012094FF400734FF00108BF
:1019A0000327042603A9CDE90339CDE90587079666
:1019B00003F03AFA4FF480731148079603A9CDE972
:1019C0000339CDE9058703F02FFA0295236C43F420
:1019D00000032364236C03F400030293029B236A35
:1019E00043F400032362236A23F40003236209B053
:1019F000BDE8F083005C004000380240000802406F
:101A000000000240F0B504468DB01422002107A862
:101A10001DF0B0F82268574B9A4240F0A98003F5B8
:101A20005043002400945A6C534842F080625A6438
:101A30005A6C02F080620092009A01941A6B42F094
:101A400020021A631A6B02F020020192019A02949A
:101A50001A6B42F001021A631A6B02F00102029241
:101A6000029A03941A6B42F002021A631A6B02F094
:101A700002020392039A04941A6B42F040021A6322
:101A80001A6B02F040020492049A05941A6B42F019
:101A900004021A631A6B02F004020592059A069476
:101AA0001A6B42F008021A631B6B03F008030693DB
:101AB00002250E26069B0B964FF4806307A9CDE9FD
:101AC0000735CDE9094503F0AFF941F658032B4836
:101AD0000B9607A9CDE907350927CDE9094503F09C
:101AE000A3F9032326480B9707A9CDE90735CDE9CC
:101AF000094503F099F94FF4706321480B9607A943
:101B0000CDE90735CDE9094503F08EF94FF40C63B3
:101B10001C480B9607A9CDE90735CDE9094503F027
:101B200083F9C02318480B9607A9CDE90735CDE9FD
:101B3000094503F079F9082314480B9607A9CDE964
:101B40000735CDE9094503F06FF94FF4A0530D486F
:101B50000B9707A9CDE90735CDE9094503F064F9ED
:101B600058202246052103F013F8582003F042F8CC
:101B70000DB0F0BD006801400014024000000240BA
:101B8000000402400018024000080240000C02401D
:101B90000268034B9A4202BF024B01221A6070474F
:101BA000002800403C0E474210B5044688B014227D
:101BB000002103A81CF0DEFF2268154B9A4224D1B5
:101BC00003F5684300220192596C41F48011596475
:101BD000596C01F48011019101990292196B41F045
:101BE000200119631B6B059203F0200302934FF44D
:101BF0006071029B0223CDE9031303200523CDE985
:101C0000060303A9034803F00FF908B010BD00BF95
:101C100000500140001402402DE9F0412C4B1C689B
:101C200086B0002C50D14FF00108C3F80080294B3A
:101C300000949A6B284842EA08029A639B6B0394CB
:101C400003EA08030093022703260C25009B01A941
:101C50004FF63F03CDE90137CDE9046503F0E4F821
:101C60001E48059501A9CDE90187CDE9034603F09A
:101C7000DBF848F233131A48059501A9CDE901377D
:101C8000CDE9034603F0D0F84FF683731548059568
:101C900001A9CDE90137CDE9034603F0C5F84CF2BF
:101CA00003731148059501A9CDE90137CDE9034634
:101CB00003F0BAF860230D48059501A9CDE9013775
:101CC000CDE9034603F0B0F806B0BDE8F08100BFEF
:101CD0005C15002000380240001402400008024059
:101CE0000018024000100240000C024000040240B4
:101CF00030B5014689B00022362002F049FF362077
:101D000002F078FF0025154B02951A6C144C42F036
:101D100010021A641B6C03F01003029301A903A8BC
:101D2000029B04F0E9F904F0D7F90E4B236040F26E
:101D3000E733E36040000C4BB0FBF3F00138606028
:101D400020462561A56005F0C7F920B9204605F0B9
:101D5000A7F809B030BD0120FBE700BF0038024002
:101D600054A800200010004040420F007047FEE7DA
:101D7000FEE7FEE7FEE77047014805F0A5B800BFA3
:101D800054A80020014803F08DBE00BFECA600203F
:101D9000014802F07BBF00BFD8A700200120704798
:101DA00008B51CF08DFE162303604FF0FF3008BD10
:101DB00008B51CF085FE16230360FEE770B50E46DD
:101DC00014460025A54201DB204670BDAFF300801C
:101DD00070550135F6E770B50E4614460025A5424C
:101DE00001DB204670BD705DAFF300800135F6E782
:101DF0004FF0FF3070474FF400534B6000207047A6
:101E0000012070470020704708B50A4B1968024648
:101E100009B9094919601868694602448A4206D915
:101E20001CF04EFE0C2303604FF0FF3008BD1A601B
:101E3000FCE700BF60150020E8A80020704710B53F
:101E4000042104461BF0ECFF204610BD08B5042910
:101E500014D8DFE801F003070B0F0F0002F040F881
:101E6000006808BD02F03CF84068FAE702F038F874
:101E70008068F6E702F034F8C068F2E70020F0E787
:101E8000004870472C0202080D20704713B500244B
:101E900051B1036801948DF8034001AA9C680DF1CB
:101EA0000303A04702B010BD0846FBE74089704716
:101EB000808970478088704783798088184480B211
:101EC0007047C07900F07F007047C079C009704743
:101ED000704710B5082104461BF0A2FF204610BD34
:101EE000704700F596730868496803C370477047E8
:101EF0007047416070477047012303727047704715
:101F00007047704770477047704710B4C2684168A7
:101F10005410034601EB6200D20748BF0A599B6880
:101F20005DF8044B48BFD358184743682BB183680A
:101F30002BB9C06800F001007047184670470120B7
:101F4000704710B5142104461BF06AFF204610BDEF
:101F500010B50C2104461BF063FF204610BD10B5E0
:101F6000102104461BF05CFF204610BD10B54FF455
:101F7000AC7104461BF054FF204610BD10B50CF0A8
:101F8000DFFD0368BDE810401B6B184770B50446C1
:101F9000B2B01E49C02202A81CF0DEFD237C6BBB40
:101FA0001B4B1B7833BB0325013D2CD0237C2F2BEF
:101FB00029D832AA02EB8303608953F8C06CE38905
:101FC00096FBF3F203FB126313FB00F3ADF804007E
:101FD0006068A189ADF800300368ADF8061012FB07
:101FE00001F21B69ADF8022069469847237C013352
:101FF0002374D9E70CF0A4FD0CF0FCFD237C2F2BFF
:10200000D1D90123237232B070BD00BF68FB010833
:102010007EA3002010B50446D0F83C0158B10368F7
:10202000DB68984738B1D4F83C0103689B6898474F
:102030000023C4F83C3110BD0023436003720374D5
:102040000E4B0F4A02601A880E4B1B889A420AD91F
:102050000732D210428105330622B3FBF2F38381AB
:102060000823C381704707330621DB1005328381C3
:10207000B2FBF1F2C1814281704700BF74A300201E
:10208000000B020876A30020F8B5044617460E465A
:102090000CF004FE104B0025C4E954760F4E1C6072
:1020A000C4E952550E4B306823600E4BC4E95035DD
:1020B000036801219B68C4E94E559847284601F002
:1020C000C3FE336893F876200AB1D86C00B99868DB
:1020D00014F08BFD2046F8BDCCA3002080A3002087
:1020E000980A0208800A0208064BC0F8483100230B
:1020F000C0F84C3100F5A073C0F84401C0F83C3181
:10210000704700BFC9220008064BC0F848310023C1
:10211000C0F84C3100F5A073C0F84401C0F83C3160
:10212000704700BF8D250008064BC0F848310023DA
:10213000C0F84C3100F5A073C0F84401C0F83C3140
:10214000704700BF31240008064BC0F84831002317
:10215000C0F84C3100F5A073C0F84401C0F83C3120
:10216000704700BFE5260008064BC0F84831002341
:10217000C0F84C3100F5A073C0F84401C0F83C3100
:10218000704700BF392800082DE9F84F07469068CE
:10219000DDF828A0994603681B6A884614469847CC
:1021A000B0F5956F05D2424B424AA32142481CF03C
:1021B00055FC606803681B6A98470F2803D83F4B9B
:1021C0003C4AA421F2E7E06803681B6A98470B28A1
:1021D00003D83B4B374AA521E8E70CF0B1FC0CF0E3
:1021E000FDFCD9F8000010B10368DB689847D9F806
:1021F000000010B103681B689847386810B1036885
:102200005B699847D8F8000010B103685B6898478D
:10221000386810B103681B689847D8F8000010B1FF
:1022200003689B689847E068036800215B6A9847E9
:102230004FF0000B234B03600546C0F804B080F854
:1022400008B0A068036859465B6A9847064601F0E3
:102250001DFF6068036859465B6A9847314604462B
:1022600001F0B6FEC9F80050C8F800403E60E4B185
:10227000231DCAF800303368C4F808A03046DB6874
:10228000F4639847236820461B68984729463046E0
:102290000EF03BF92B6828461B6998472B682846A7
:1022A0005B6998472046BDE8F88F2346E1E700BF09
:1022B00040030208CE030208D204020819050208EE
:1022C000BC050208DC0A020807B5D0F854310093B7
:1022D000D0F85021044B00F59C710448FFF754FFDF
:1022E00003B05DF804FB00BFC0A30020BCA3002026
:1022F0002DE9F84F07469068DDF828A09946036855
:102300001B6A88461446984740F22B43984205D8EA
:10231000414B424AA32142481CF0A0FB606803687D
:102320001B6A98470F2803D83E4B3C4AA421F2E78A
:10233000E06803681B6A98470B2803D83A4B374A72
:10234000A521E8E70CF0FCFB0CF048FCD9F80000F4
:1023500010B10368DB689847D9F8000010B1036832
:102360001B689847386810B103685B699847D8F8CC
:10237000000010B103685B689847386810B10368C3
:102380001B689847D8F8000010B103689B6898470D
:10239000E068036800215B6A98474FF0000B234B0D
:1023A00003600546C0F804B080F808B0A068036870
:1023B00059465B6A9847064601F0E0FF606803688B
:1023C00059465B6A98473146044601F077FEC9F8E2
:1023D0000050C8F800403E60E4B1231DCAF8003048
:1023E0003368C4F808A03046DB68F4639847236874
:1023F00020461B689847294630460EF086F82B6821
:1024000028461B6998472B6828465B6998472046F1
:10241000BDE8F88F2346E1E7400302085F060208A3
:10242000D204020819050208BC050208DC0A0208E9
:1024300007B5D0F854310093D0F85021044B00F583
:102440009C710448FFF754FF03B05DF804FB00BF24
:10245000C0A30020BCA3002003685B6A18470000EB
:102460002DE9F04707469068DDF820A099460368FB
:102470001B6A884614469847B0F5956F05D23E4BC7
:102480003E4AA3213E481CF0E9FA606803681B6AD3
:1024900098470F2803D83B4B384AA421F2E7E0685D
:1024A00003681B6A9847132803D8374B334AA52182
:1024B000E8E70CF045FB0CF091FBD9F8000010B1F7
:1024C0000368DB689847D9F8000010B103681B68FF
:1024D0009847386810B103685B699847D8F80000DE
:1024E00010B103685B689847386810B103681B68CF
:1024F0009847D8F8000010B103689B6898470021FE
:10250000E068FFF7A9FF0546FFF796FDA06803689E
:1025100000215B6A9847064601F0B8FD60680368D1
:1025200000215B6A98473146044601F051FDC9F825
:102530000050C8F800403E60E4B1231DCAF80030E6
:102540003368C4F808A03046DB68F4639847236812
:1025500020461B689847294630460DF0D6FF2B6869
:1025600028461B6998472B6828465B699847204690
:10257000BDE8F0872346E1E740030208630702084D
:10258000D204020819050208BC05020807B5D0F8F4
:1025900054310093D0F85021044B00F59C7104484D
:1025A000FFF75EFF03B05DF804FB00BFC0A300208F
:1025B000BCA300202DE9F04707469068DDF820A075
:1025C000994603681B6A88461446984740F22B4395
:1025D000984205D83E4B3F4AA3213F481CF03EFAA3
:1025E000606803681B6A98470F2803D83B4B394A39
:1025F000A421F2E7E06803681B6A9847132803D810
:10260000374B344AA521E8E70CF09AFA0CF0E6FAC9
:10261000D9F8000010B10368DB689847D9F80000CA
:1026200010B103681B689847386810B103685B698C
:102630009847D8F8000010B103685B68984738687D
:1026400010B103681B689847D8F8000010B1036800
:102650009B6898470021E068FFF7FEFE0546FFF7FC
:10266000EBFCA068036800215B6A9847064601F00E
:1026700085FE6068036800215B6A9847314604461E
:1026800001F01CFDC9F80050C8F800403E60E4B1FC
:10269000231DCAF800303368C4F808A03046DB6850
:1026A000F4639847236820461B68984729463046BC
:1026B0000DF02BFF2B6828461B6998472B6828468E
:1026C0005B6998472046BDE8F0872346E1E700BFF5
:1026D000400302086A080208D20402081905020829
:1026E000BC05020807B5D0F854310093D0F850214A
:1026F000044B00F59C710448FFF75CFF03B05DF8E4
:1027000004FB00BFC0A30020BCA300202DE9F047BC
:1027100007469068DDF820A0994603681B6A884642
:1027200014469847B0F56B7F05D23E4B3E4AA32135
:102730003E481CF093F9606803681B6A98470F28AD
:1027400003D83B4B384AA421F2E7E06803681B6AD0
:102750009847132803D8374B334AA521E8E70CF0F4
:10276000EFF90CF03BFAD9F8000010B10368DB6810
:102770009847D9F8000010B103681B68984738687B
:1027800010B103685B699847D8F8000010B103687E
:102790005B689847386810B103681B689847D8F899
:1027A000000010B103689B6898470021E068FFF7BC
:1027B00053FE0546FFF740FCA068036800215B6AF2
:1027C0009847064601F0DAFE6068036800215B6AFC
:1027D00098473146044601F0E9FDC9F80050C8F8B1
:1027E00000403E60E4B1231DCAF800303368C4F8ED
:1027F00008A03046DB68F4639847236820461B68CE
:102800009847294630460DF080FE2B6828461B6904
:1028100098472B6828465B6998472046BDE8F087B3
:102820002346E1E74003020871090208D2040208C6
:1028300019050208BC05020807B5D0F85431009309
:10284000D0F85021044B00F59C710448FFF75EFF5F
:1028500003B05DF804FB00BFC0A30020BCA30020B0
:10286000006A7047406A704770478B8880690A68C1
:10287000DB0A50F823001044704710B5C2B1137B37
:10288000B3B1547BD27A240204F4E0641443C269E5
:1028900098B202EB840213888B4202D192F90200B3
:1028A00010BD05D8013880B204320028F3D1F7E713
:1028B0000020F5E710B5282104461BF0B1FA2046A8
:1028C00010BD000030B589B00446BDF850500695E3
:1028D000BDF84C5005959DF8405004959DF83C502E
:1028E00003959DF8385002959DF8345001959DF858
:1028F000305000950DF0EAF9064B2360119BA3615F
:10290000129BE361159B2362169B6362204609B00C
:1029100030BD00BF240B0208002070478180704743
:10292000C18070470181704741817047704770478F
:1029300070477047704710B4C4880368121B8488BE
:102940001B6D091B12B25DF8044B09B218474FF614
:10295000FF7383814FF0FF3303621368C36110601C
:1029600070477047704770477047704790F8252050
:102970001AB190F8242002B1186070477047704770
:10298000704710B503680446DB6A98472368204601
:102990001B6BBDE810401847704730B4C2684468EC
:1029A0005510034604EB6200D20748BF62599B688A
:1029B00030BC48BFD358184743682BB183682BB944
:1029C000C06800F00100704718467047012070474A
:1029D00010B5102104461BF023FA204610BD10B597
:1029E00040F2A44104461BF01BFA204610BD00F53E
:1029F0007370884208B505D10CF0A2F8BDE8084014
:102A0000FFF792BB08BD0000074A02600022C0E940
:102A10000122C0E90322C0E90522C0E907224FF4E0
:102A200080728284704700BFCC27020870B50368AB
:102A30000446DB6A154698472368294620461B6BE7
:102A4000BDE87040184770B504461D46BDF91060DA
:102A5000FFF7ECFF2368294620465B6B9847236805
:102A6000314620469B6BBDE87040184710B52622C2
:102A7000044600211CF07EF82046FFF7C5FF074BF7
:102A80002360074BA3624FF6FF73A3854FF47F02C9
:102A90000023C4E90C322387204610BD54210208CC
:102AA000380302082DE9F04F2DED028B04468BB060
:102AB000A04600250DF0ACFBA84BE56348F8403B71
:102AC0002946262240461CF055F84046FFF79CFF59
:102AD00004F16C07FF26A24B236426224FF6FF73F6
:102AE000294684F86660A5663846ADF820301CF0AB
:102AF00041F83846FFF788FF9A4BE3660DF1200A4C
:102B0000BDF82030A4F89230514684F894603846DD
:102B10000AF0F5F904F19C06934BE366A4F896508D
:102B2000A4F89850304607F0C9F804F573731846B6
:102B300004F5816B08EE103A04F244490AF0B8F942
:102B40005846FFF793FF4846FFF790FF874BC4F8BE
:102B50004434874BC4F89434864BC4F89C344FF407
:102B6000A0732A462946C4F88054C4F88454C4F893
:102B7000A05400934046F023C4F89844FFF763FF45
:102B80004FF07F43A36651460C233846ADF8203002
:102B900009F076FC4FF4A0732A4629460093384684
:102BA000F023FFF750FF2A462946384609F046FC35
:102BB0002A4629463046FFF739FF74231A46022178
:102BC000304606F03FFF4F2304220521304606F031
:102BD000E3FD402302220421304606F0D1FD2946C0
:102BE000304606F08EFE2C2302220321304606F0EA
:102BF000BBFD2946304606F06AFE0A222B461146E6
:102C0000304606F0D5FD5C4A0A21304606F037FE14
:102C1000294618EE100A4FF48272FFF707FF0123CE
:102C2000ADF81830082318EE100AADF81C30ADF8D6
:102C3000203006AA07AB05A9CDF800A0ADF81450C6
:102C40000AF092F80F23A4F80434A4F8063404F22E
:102C50009443F022C4F8F43372215846FFF7E6FE9D
:102C60004FF07F43C4F83834444BA4F83C540893E5
:102C7000514616235846ADF8243009F0A0FB40F227
:102C80000F1272214846FFF7D1FE4FF07F43C4F880
:102C900074343B4BA4F878541B6804F591652BB948
:102CA000384B394AAE2139481BF0D8FE384B1B88C7
:102CB000182B03D8374B344AAF21F4E7364B182191
:102CC000186801F0FDF8354A0346032128460FF045
:102CD00009F92B4AC4F88054136804F28E45002B7E
:102CE000DED02B4A1388192BE4D92B4B19211868F5
:102CF00001F0E6F8294A0346032128460FF0F2F8CE
:102D00004846C4F8845409F03DFB1C4B08935146D7
:102D100017234846ADF8243009F051FB201D4146E9
:102D2000039007F035F90398394607F031F9039815
:102D3000314607F02DF918EE101A039807F028F91C
:102D40000398594607F024F90398494607F020F9FB
:102D500020460BB0BDEC028BBDE8F08FA00C020842
:102D6000FC210208DC240208602202088C230208ED
:102D7000880C0208EF29000817050108380302082B
:102D8000D0A30020740B0208B60B0208E40B020863
:102D9000D4A300202B0C0208DCA300207D0C020829
:102DA0007047704770477047704703689B6B1847C0
:102DB000704730B4C26844685510034604EB6200A3
:102DC000D20748BF62599B6830BC48BFD3581847E8
:102DD00043682BB183682BB9C06800F001007047CD
:102DE000184670470120704710B5102104461BF0AB
:102DF00017F8204610BD10B540F22C4104461BF0D8
:102E00000FF8204610BD00F5A273994210B5044694
:102E100005D10BF095FEBDE81040FFF775B900F540
:102E2000C673994209D10BF08BFEFFF76DF9236849
:102E3000DB6A2046BDE81040184700F552739942FE
:102E400002D103681B6BF5E700F56173994202D16B
:102E500003685B6BEEE700F57074A14205D10BF0DF
:102E60006FFEBDE81040FFF77FB910BD73B5018F4D
:102E70004FF6FF739942064633D01C4B1B682BB9A3
:102E80001B4B1C4AAE211C481BF0E8FD1B4A128854
:102E90008A4203D81A4B174AAF21F4E713F81120DE
:102EA000184B1B6853F82250174B186801F008F8AC
:102EB0002B68019001469B6A284698472B68019928
:102EC0001B6C0446284698472B6801995B6A14FBE3
:102ED00000F428469847E4B2044486F8454002B01E
:102EE00070BD002380F84530F9E700BFD0A3002073
:102EF000740B0208B60B0208E40B0208D4A30020EE
:102F00002B0C0208D8A30020DCA3002010B5262239
:102F1000044600211BF02EFE2046FFF775FD00231E
:102F2000A36284F82C300123064A84F824304FF63B
:102F3000FF73E385238684F832302260A38620461F
:102F400010BD00BFB02002082DE9F04F2DED0E8B13
:102F500004468BB0A14600250DF05AF9CD4BE56330
:102F600049F8403B2622294648461BF003FE4846C6
:102F7000FFF74AFD04F16C08FF26C74B23642622A5
:102F80004FF6FF73294684F86660A5664046ADF8A3
:102F900020301BF0EFFD4046FFF736FDBF4BE366E8
:102FA000BDF82030A4F8923008A984F89460404617
:102FB00009F0A5FFBA4BE36604F19C031846A4F898
:102FC0009650A4F898500AEE903AFFF79FFF04F14C
:102FD000D40318460BEE103AFFF798FF04F58673FA
:102FE00018460BEE903AFFF791FF04F5A2731846CE
:102FF00008EE103A0AF0C6F804F5C673184608EE53
:10300000903A0AF0BFF804F5EA7318460CEE103A4D
:10301000FFF72CFD04F5047318460CEE903AFFF709
:1030200025FD04F5137318460DEE103AFFF71EFD4B
:1030300004F522739B4E184604F5327A09EE103AD5
:10304000FFF714FDC4F88862C4F8C4525046FFF775
:103050000DFD04F54273C4F8C8621846C4F8045361
:1030600009EE903AFFF702FD04F55273C4F80863C5
:103070001846C4F844530DEE903A09F019FF04F5D0
:10308000617318460EEE103A09F012FF04F57073E2
:1030900018460AEE103A0AF075F8834BC4F81C344F
:1030A0004FF4A076814BC4F824344FF07F4B2A466E
:1030B0000096F02329464846C4F82044C4F8285412
:1030C000FFF7C1FC4FF00B0308A94046C4F868B0F5
:1030D000ADF8203009F0D4F9F02300962A462946AD
:1030E0004046FFF7B0FC2A462946404609F0A6F9BB
:1030F00009271AEE900A2A462946FFF797FC1AEE8E
:10310000900A08AA07A9A4F8D070ADF81C50ADF831
:10311000207009F065FB1BEE100A99222946FFF783
:1031200085FC1BEE100A08AA07A9A4F80871ADF8DF
:103130001C50ADF8207009F053FB1BEE900A4C2296
:103140002946FFF773FC1BEE900A08AA07A9A4F80A
:103150004071ADF81C50ADF8207009F041FB18EE3D
:10316000100A4FF48272B421FFF760FC4FF00106A1
:1031700008AA07A918EE100AADF82060ADF81C5097
:1031800009F02EFB18EE100AA4F87C51FFF76EFE32
:10319000474A4FF0FF33C4E9602304F21C43C4F8EC
:1031A0006C3118EE900A4FF482725A210293FFF7A5
:1031B0003DFC08AA07A918EE900AADF82060ADF80A
:1031C0001C5009F00DFB18EE900AA4F8C461FFF73B
:1031D0004DFE384A384E4FF0FF33C4E97223029B4C
:1031E000C4F8B4311CEE100A5E225321FFF71EFC16
:1031F00002221CEE100A08A9C4F804B2A4F808526E
:103200000896ADF8242009F0DAF8A8221CEE900AFE
:103210004D21FFF70BFC1CEE900A089608A9C4F894
:1032200040B2A4F844520326ADF8246009F0C7F870
:103230001DEE100A12225321FFF7F8FB1E4BC4F8B3
:103240007CB204221DEE100A08A9A4F8805208934B
:10325000ADF8242009F0B3F81B2219EE100AAF21B3
:10326000FFF7E4FB04F581630393144BC4F8B8B291
:103270001A68A4F8BC522AB9114B124AAE2112485E
:103280001BF0ECFB114B1A88092A23D8104B0D4A6E
:10329000AF21F4E7F40C0208FC210208DC24020848
:1032A0006022020814230208DC0C0208072E000822
:1032B000B7FF00FFFB00FFFF38030208D0A3002088
:1032C000740B0208B60B0208E40B0208D4A300201A
:1032D0002B0C02089B4B3946186800F0F1FD314673
:1032E0000346994A03980EF0FDFD039AC4F8C422E0
:1032F00019EE100A09F046F80523944AADF8243077
:1033000019EE100A08A9089209F059F8AF215222C3
:103310005046FFF78BFB8E49C4F8F8B20B68A4F84F
:10332000FC5204F20E47002BA6D08A4803880A2BD1
:10333000ACD9844B0A21186800F0C2FD824A0346CA
:10334000314638460EF0CEFDC4F80473504609F0FD
:1033500019F80DF1200C7D4A089261465046062767
:10336000ADF8247009F02BF8AF2119EE900A9022E5
:10337000FFF75CFB7649C4F838B30B68A4F83C53FC
:1033800004F2144B002B3FF477AF724803880B2BE9
:103390007FF67CAF6B4B0B21186800F091FD314636
:1033A0000346694A58460EF09DFD19EE900AC4F88E
:1033B00044B308F0E7FF0726644A089219EE900A22
:1033C00008A9ADF8246008F0FAFF1DEE900AC822A3
:1033D000B421FFF72BFB4FF00103ADF8183007AA1B
:1033E00008AB1DEE900A009305A9134606AAADF896
:1033F0001450ADF81C60ADF820604FF0160B09F0CA
:10340000B3FC0F26029BC4F870331EEE100AA4F81A
:1034100080B3A4F88263C8225A21FFF707FB4FF05C
:103420000103ADF8183007AA08AB1EEE100A00938E
:1034300005A9134606AAADF81450ADF81C70ADF8F6
:10344000207009F091FC029BC4F8AC331AEE100A0C
:103450002946A4F8BCB3A4F8BE634FF48272FFF708
:10346000E5FA08AA07A91AEE100A4FF00103ADF811
:103470001C50ADF8203009F0B3F908231AEE100AF9
:10348000A4F8F833FFF7F2FC334BC4F8FC334FF0E9
:10349000FF33251DC4F80034029BC4F8E8334946C5
:1034A000284606F075FD4146284606F071FD1AEEE5
:1034B000901A284606F06CFD1BEE101A284606F0FE
:1034C00067FD1BEE901A284606F062FD18EE101AF2
:1034D000284606F05DFD18EE901A284606F058FDC5
:1034E0001CEE101A284606F053FD1CEE901A2846D2
:1034F00006F04EFD1DEE101A284606F049FD19EEA5
:10350000101A284606F044FD5146284606F040FDB4
:1035100019EE901A284606F03BFD1DEE901A28463B
:1035200006F036FD1EEE101A284606F031FD28463C
:103530001AEE101A06F02CFD20460BB0BDEC0E8BD7
:10354000BDE8F08FDCA300207D0C020838030208E0
:10355000D0A30020D4A30020D5FF00FF7047704700
:1035600070477047704703685B6B1847704730B40B
:10357000C26844685510034604EB6200D20748BF96
:1035800062599B6830BC48BFD358184743682BB179
:1035900083682BB9C06800F0010070471846704777
:1035A0000120704710B5102104461AF039FC20465E
:1035B00010BD10B54FF46B7104461AF031FC204673
:1035C00010BD00F58673994210B5044605D10BF085
:1035D000B7FABDE81040FEF797BD00F5AA7399420F
:1035E00009D10BF0ADFAFEF7AFFD23689B6B2046C7
:1035F000BDE81040184700F52573994202D10368D1
:10360000DB6AF5E700F53473994202D103681B6B5E
:10361000EEE700F54374A14205D10BF091FABDE845
:103620001040FEF791BD10BD2DE9F04F2DED0A8B36
:1036300004468BB0274600250CF0EAFDB34BE5634A
:1036400047F8403B2622294638461BF093FA384675
:10365000FFF7DAF904F16C064FF0FF08AC4B236476
:1036600026224FF6FF73294684F86680A566304609
:10367000ADF820301BF07EFA3046FFF7C5F9A54BB8
:10368000E366BDF82030A4F8923008A984F894804D
:10369000304609F034FCA04BE36604F19C03184665
:1036A000A4F89650A4F8985009EE103AFFF72EFCB3
:1036B00004F1D403184609EE903AFFF727FC04F50D
:1036C0008673184608EE103A09F05CFD04F5AA73FB
:1036D000184608EE903A09F055FD04F5CE731846E9
:1036E0000AEE103AFFF7C2F904F5EC73184604F538
:1036F000057B0AEE903ADFF85082FFF7B7F904F540
:1037000015795846FFF7B2F9C4F81482C4F850523C
:103710004846FFF7ABF904F52573C4F85482184600
:10372000C4F890520BEE103A09F0C2FB04F5347362
:10373000184604F5437A0BEE903A09F0B9FB50466F
:1037400009F020FD04F5557318460CEE103AFFF70A
:103750008DF9724BC4E9E734714B4FF4A0782A46D7
:10376000C4E9E935CDF80080F02329463846FFF753
:103770006AF94FF07F43A36608A90A233046ADF8E3
:10378000203008F07DFEF023CDF800802A4629463F
:103790003046FFF758F92A462946304608F04EFED3
:1037A0004FF0090819EE100A47222946FFF73EF9A3
:1037B00019EE100AA4F8D08008AA07A9ADF8208055
:1037C000ADF81C5009F00CF819EE900A8C2229462D
:1037D000FFF72CF919EE900AA4F8088108AA07A9A6
:1037E000ADF82080ADF81C5008F0FAFF18EE100A72
:1037F0004FF482722946FFF719F94FF0010808AA21
:1038000007A918EE100AADF82080ADF81C5008F09A
:10381000E7FF0C2318EE100AA4F84431FFF726FB4B
:10382000404A4FF0FF33C4E9522304F56773C4F8EC
:10383000343118EE900A4FF482725A210393FFF745
:10384000F5F808AA07A918EE900AADF82080ADF89F
:103850001C5008F0C5FF0D2318EE900AA4F88C3117
:10386000FFF704FB30494FF0FF33C4E96413039BB7
:10387000C4F87C319B221AEE100A4B21FFF7D6F8D0
:103880004FF07F43C4F8CC31284B08931AEE100A4E
:103890000E2308A9A4F8D051ADF8243008F08FFD0C
:1038A0001AEE900A56225A21FFF7C0F84FF07F42D5
:1038B0001E4BC4F808221AEE900A089308A94FF08C
:1038C0000F03A4F80C52ADF8243008F078FD4D2217
:1038D000AF215846FFF7AAF84FF07F43C4F84432AF
:1038E000134BA4F848521B6804F564782BB9114BAC
:1038F000114AAE2111481BF0B1F8114B1B88112B56
:1039000024D8104B0C4AAF21F4E700BF500D020839
:10391000FC210208DC24020860220208380D02089B
:10392000C3350008B7FF00FFFB00FFFF38030208A4
:10393000D0A30020740B0208B60B0208E40B0208A7
:10394000D4A300202B0C020814230208884B112159
:10395000186800F0B5FA874A0346032140460EF086
:10396000C1FAC4F85082584608F00CFD824B089307
:1039700008A910235846ADF8243008F020FDAF21E7
:103980008C224846FFF752F84FF07F41C4F884126A
:103990007A49A4F888520B6804F29638002BA6D016
:1039A00077490B88132BACD9714A1321106800F0AA
:1039B00087FA704A0346032140460EF093FAC4F892
:1039C0009082484608F0DEFC6B4B089308A912234E
:1039D0004846ADF8243008F0F2FC1BEE100AC8226D
:1039E000B421FFF723F8072307A94FF00102ADF830
:1039F0001820ADF81C30ADF8203008AA0B4606A9F7
:103A00001BEE100A00920A4605A9ADF814504FF0BB
:103A1000160809F0A9F9039AC4F8BC224FF00F0167
:103A20001BEE900AA4F8CE12A4F8CC82C8225A2128
:103A3000FEF7FCFF062307A84FF00102ADF818209F
:103A4000ADF81C30ADF8203008AA034606A8009255
:103A5000024605A801461BEE900AADF8145009F085
:103A600083F9039AC4F8F8224FF00F01A4F80A135F
:103A70005046A4F808834FF48272B421FEF7D6FFB3
:103A80004FF0010207A9ADF82020504608AAADF872
:103A90001C5008F0A5FE1423A4F844335046FFF749
:103AA000E5F9384B4FF0FF32C4E9D232039AC4F83B
:103AB00034231CEE100A1F224A21FEF7B7FF4FF0F5
:103AC0007F422D4BC4F884231CEE100AA4F88853BF
:103AD0000893251D152308A9ADF8243008F06FFCC4
:103AE0003946284606F054FA3146284606F050FA80
:103AF00019EE101A284606F04BFA19EE901A2846CD
:103B000006F046FA18EE101A284606F041FA18EEAA
:103B1000901A284606F03CFA1AEE101A284606F0CB
:103B200037FA1AEE901A284606F032FA5946284615
:103B300006F02EFA4946284606F02AFA1BEE101A1D
:103B4000284606F025FA1BEE901A284606F020FAC1
:103B50005146284606F01CFA28461CEE101A06F0BC
:103B600017FA20460BB0BDEC0A8BBDE8F08F00BF02
:103B7000DCA300207D0C020838030208D0A300203B
:103B8000D4A30020D5FF00FF7047000030B5164DCC
:103B90002C78BFF35B8F14F001048DB021D128463F
:103BA0001AF040F9E8B13F230793104B0693104BEE
:103BB000059308220323CDE9033201230422CDE932
:103BC00001230C49009312221923CDE909440A4824
:103BD0000894FEF777FE28461AF030F907481AF0E5
:103BE0005BFF05480DB030BD64150020705A020817
:103BF0008C0D0208CC57020868150020893B00088C
:103C00007047000030B5154D2C78BFF35B8F14F072
:103C100001048DB01FD128461AF004F9D8B13F2312
:103C200007930F4B06930F4B05930123CDE90343F5
:103C300002930423CDE900430B490C4808940A235E
:103C40001022CDE90944FEF73DFE28461AF0F6F8A9
:103C500007481AF021FF05480DB030BD901500202F
:103C6000745A0208900D0208C858020894150020E2
:103C7000013C00087047000030B5154D2C78BFF3AB
:103C80005B8F14F001048DB01ED128461AF0CAF8DB
:103C9000D0B13F2307930F4B06930F4B0F491048AA
:103CA00008940122CDE904430423CDE90132CDE992
:103CB0000944142303940094FEF704FE28461AF0E6
:103CC000BDF808481AF0E8FE05480DB030BD00BF49
:103CD000BC150020785A0208940D0208A859020861
:103CE000C0150020753C00087047000030B5154D28
:103CF0002C78BFF35B8F14F001048DB01FD12846E0
:103D00001AF090F8D8B13F2307930F4B06930F4B4F
:103D10000F4910480894CDE9044304220123CDE95A
:103D2000012300930D222823CDE909440394FEF7D3
:103D3000C9FD28461AF082F807481AF0ADFE05487A
:103D40000DB030BDE81500207C5A0208980D02081D
:103D5000B8590208EC150020E93C00080020704723
:103D6000002070470EB403B503AB002153F8042BB9
:103D700001930BF0C9FD02B05DF804EB03B070478E
:103D80000CB407B504AB53F8042B01930BF0BCFD46
:103D900003B05DF804EB02B070470000C36B10B5D0
:103DA000044673B3038E2BB9184B194ABF21194827
:103DB0001AF054FEC38D00EB43035B8B0BB30DF085
:103DC00081F9238E012B03D8134B144AC421EEE74B
:103DD000E28D531C9BB2092B194688BFA3F10A013F
:103DE00004EB410140F63F10498B814209D10A2B77
:103DF00004EB420228BF002304EB4303508B58839B
:103E000051832046BDE810400DF040B89C0D0208DB
:103E1000A50D0208500E02089A0E0208A80E02080C
:103E20000CF0EEBF10B586B002AC84E806001A466E
:103E30000AAB05930193099B00932146089B0AF066
:103E4000E6F906B010BD000038B518BB124B134898
:103E50001B681349B3B11A689C681A4402605A6817
:103E60001A440A601C440F4B00221A8000F038F8F4
:103E7000054600F033F80C4B1C600C4B1D600C4BDE
:103E8000188007E00B4B03600B4B0B600B4B1C685F
:103E9000002CE8D138BD00BF1416002018160020F1
:103EA0001C16002020160020D0A30020D8A300203C
:103EB000D4A30020E85A0208805A0208B45B020822
:103EC000044B1B6853F82100034B1B6803EB4000B5
:103ED000704700BF1C160020181600201A207047DB
:103EE000004870472416002010B5FFF74FFE064C1F
:103EF0002060FFF7FBFE6060FFF784FEA060FFF725
:103F0000BBFEE06010BD00BF24160020704710B556
:103F10004FF4AC71044619F083FF204610BD10B574
:103F20000446D0F8540100F013F82046BDE81040D4
:103F30000AF0DEBC10B50446FEF7A6F8014B23607C
:103F4000204610BD840F0208002202607047000066
:103F5000054B064A19781160054A597811609A781C
:103F6000044B1A60704700BF94A70020341600204D
:103F7000381600203C160020084A094B12681A70B7
:103F8000084A094812685A70084A094912689A7022
:103F9000002300681A4603F071BB00BF34160020EE
:103FA00094A7002038160020D0A700203C1600203F
:103FB0001CA80020704704387047704710B51021C6
:103FC000044619F02DFF204610BDA0F10400F5E7CE
:103FD00010B500228260044AC16002F10804203258
:103FE0000460426010BD00BFC00F020870477047F8
:103FF000FEF7C7BC044B054A05491B7812780978BF
:104000009C3005F0D1BE00BF3C16002038160020C1
:104010003416002030B5154B154A1B6800F5916524
:1040200085B00446032128460DF05CFF114BC4F80F
:10403000805404F28E450E4A1B68032128460DF079
:1040400051FF04F24440C4F88454019008F09AF9F6
:10405000094B0198029302A91723ADF80C3008F020
:10406000AEF901980BF071FD05B030BD4C16002083
:10407000E80F0208501600203803020810B54FF46C
:104080009561044619F0CCFE204610BD10B50446DB
:10409000FEF708FD014B2360204610BDF40F020817
:1040A000704704387047704710B51021044619F066
:1040B000B7FE204610BDA0F10400F5E710B50022C0
:1040C0008260044AC16002F1080420320460426048
:1040D00010BD00BF281002088068FFF74DBF704771
:1040E00070470000034A00231360034A1360034A29
:1040F0001360704748160020401600204416002028
:10410000FEF753BE074BC06B1A68074B1A60074B8C
:104110001A68074B1A60074B1A68074B1A60FFF7BB
:10412000DBBF00BF481600203416002040160020D8
:1041300038160020441600203C16002010B540F22E
:104140002C41044619F06CFE204610BD08B5034A08
:10415000034B044887211AF081FC00BF8C10020831
:1041600050100208BF10020808B5054B1B680BB9B8
:10417000FFF7ECFF828EC08D131A5842584108BDDC
:1041800008A40020F0B5044685B09C30FFF7ECFF92
:10419000064604F1D40504F586709EB30021019013
:1041A00007F002FF01980BF0D0FC2846002107F031
:1041B000FBFE2846374D0BF0C8FC2B6801330C2B57
:1041C00004F5227618D82B6004F581672B68324AF3
:1041D000032138460DF086FE3046C4F8C47208F05C
:1041E000D1F82E4B029302A905233046ADF80C30CE
:1041F00008F0E5F830462AE0002330462B600BF04B
:10420000A4FCE1E7FFF7B0FF074620B3284631469C
:1042100007F0CAFE2846224D0BF097FC2B683B2B7B
:1042200004F5327703D938462E600BF08EFC2B68EC
:10423000194A01332B6004F20E45032128460DF084
:1042400051FE3846C4F8045308F09CF838460BF089
:104250007CFC05B0F0BD2846FFF786FF0028F8D0AB
:10426000104D2B683B2B04F5427603D930462F6066
:104270000BF06BFC2B68084A01332B6004F21445E9
:10428000032128460DF02EFEC4F84453304608F0B2
:1042900079F8AFE748160020E80F02083803020853
:1042A000401600204416002073B504469C30FFF7EA
:1042B0005BFF064604F1D40504F586702EB3002199
:1042C000019007F071FE01980BF03FFC0021284699
:1042D00007F06AFE28460BF038FC244A136804F500
:1042E0008165013B13600321214A28460DF0FAFD48
:1042F000C4F8C45204F52270019008F043F8019804
:1043000002B0BDE870400BF020BCFFF72DFFB0B14C
:104310003146284607F048FE28460BF016FC154AA1
:10432000136804F20E45013B13600321104A28462E
:104330000DF0D8FDC4F8045304F53270DCE72846CC
:10434000FFF712FF78B10C4A136804F21445013BE1
:1043500013600321064A28460DF0C4FDC4F84453F7
:1043600004F54270C8E702B070BD00BF48160020D7
:10437000E80F0208401600204416002010B504463D
:10438000FEF7E2FD014B2360204610BD0C11020830
:10439000704704387047704710B51021044619F073
:1043A0003FFD204610BDA0F10400F5E710B5002246
:1043B0008260044AC16002F1080420320460426055
:1043C00010BD00BF4811020870477047034A002320
:1043D0001360034A1360034A13607047601600209D
:1043E000581600205C160020064B1A68064B1A600F
:1043F000064B1A68064B1A60064B1A68064B1A6081
:10440000704700BF601600204C1600205816002090
:10441000501600205C16002054160020FFF7A3B8A9
:1044200010B54FF46B71044619F0FAFC204610BD2C
:10443000F0B5044685B09C30FFF796FE064604F1C1
:10444000D4007EB30021274D019007F0ADFD019807
:104450000BF07BFB2B6801330C2B04F505761BD886
:104460002B6004F564772B681F4A032138460DF052
:1044700039FD3046C4F8507207F084FF1B4B02939D
:104480003046052302A9ADF80C3007F098FF3046FE
:104490000BF05BFB05B0F0BD002330462B600BF04A
:1044A00054FBDEE7FFF760FE0028F3D0104D2B68C9
:1044B0003B2B04F5157703D938462E600BF045FBEE
:1044C0002B68094A01332B6004F2963503212846F4
:1044D0000DF008FD3846C4F8905207F053FF3846F7
:1044E000D6E700BF60160020E80F02083803020874
:1044F0005816002037B504469C30FFF735FE0346BA
:1045000004F1D400F3B10021019007F04DFD0198B2
:104510000BF01BFB164A136804F56475013B13602E
:104520000321144A28460DF0DDFCC4F8505204F56E
:104530000570019007F026FF019803B0BDE83040F8
:104540000BF003BBFFF710FE78B10B4A136804F2BF
:104550009635013B13600321064A28460DF0C2FC44
:10456000C4F8905204F51570E3E703B030BD00BF06
:1045700060160020E80F02085816002010B5044607
:10458000FFF752F8014B2360204610BD7811020856
:10459000F02070474FF4A07070472920FDF722B932
:1045A0002820FDF71FB908B5FDF7F0F8CA20FDF780
:1045B00019F9C320FDF7FAF80820FDF7F7F85020A5
:1045C000FDF7F4F8CF20FDF70DF90020FDF7EEF828
:1045D000C120FDF7EBF83020FDF7E8F8ED20FDF7FE
:1045E00001F96420FDF7E2F80320FDF7DFF812205F
:1045F000FDF7DCF88120FDF7D9F8E820FDF7F2F8A7
:104600008520FDF7D3F80020FDF7D0F87820FDF7DE
:10461000CDF8CB20FDF7E6F83920FDF7C7F82C20C0
:10462000FDF7C4F80020FDF7C1F83420FDF7BEF80F
:104630000220FDF7BBF8F720FDF7D4F82020FDF7A6
:10464000B5F8EA20FDF7CEF80020FDF7AFF800201E
:10465000FDF7ACF8B120FDF7C5F80020FDF7A6F88E
:104660001B20FDF7A3F8B620FDF7BCF80A20FDF7E4
:104670009DF8A220FDF79AF8C020FDF7B3F81020AE
:10468000FDF794F8C120FDF7ADF81020FDF78EF886
:10469000C520FDF7A7F84520FDF788F81520FDF7A0
:1046A00085F8C720FDF79EF89020FDF77FF83620AB
:1046B000FDF798F8C820FDF779F8F220FDF792F899
:1046C0000020FDF773F8B020FDF78CF8C220FDF74D
:1046D0006DF8B620FDF786F80A20FDF767F8A720E9
:1046E000FDF764F82720FDF761F80420FDF75EF878
:1046F0002A20FDF777F80020FDF758F80020FDF795
:1047000055F80020FDF752F8EF20FDF74FF82B2069
:10471000FDF768F80020FDF749F80020FDF746F89E
:104720000120FDF743F83F20FDF740F8F620FDF7A4
:1047300059F80120FDF73AF80020FDF737F8062078
:10474000FDF734F82C20FDF74DF8C820FDF798F858
:104750002620FDF747F80120FDF728F8E020FDF7B7
:1047600041F80F20FDF722F82920FDF71FF824203B
:10477000FDF71CF80C20FDF719F80E20FDF716F8D0
:104780000920FDF713F84E20FDF710F87820FDF70B
:104790000DF83C20FDF70AF80920FDF707F8132073
:1047A000FDF704F80520FDF701F81720FCF7FEFFE0
:1047B0001120FCF7FBFF0020FCF7F8FFE120FDF7DC
:1047C00011F80020FCF7F2FF1620FCF7EFFF1B208A
:1047D000FCF7ECFF0420FCF7E9FF1120FCF7E6FFF3
:1047E0000720FCF7E3FF3120FCF7E0FF3320FCF764
:1047F000DDFF4220FCF7DAFF0520FCF7D7FF0C2095
:10480000FCF7D4FF0A20FCF7D1FF2820FCF7CEFFED
:104810002F20FCF7CBFF0F20FCF7C8FF1120FCF77F
:10482000E1FFC820FDF72CF82920FCF7DBFFBDE8ED
:1048300008402C20FCF7D6BF08B5FCF7A7FF0321E2
:10484000D320FCF7EBFF80B208BD10B5C4B2022242
:1048500003212046FCF750FF0A20FCF795FF204675
:1048600000220321FCF748FFBDE810400220FCF7BE
:104870008BBF38B50446E4B2FCF73CFF002120466C
:10488000FCF752FF012105462046FCF74DFF40EAA8
:10489000052080B238BD10B5C4B240212046FCF7D7
:1048A00043FF030607D54C212046FCF73DFF0038A7
:1048B00018BF012010BD01224B212046FCF71CFF30
:1048C000204600224B21FCF717FF0020F2E773B5CA
:1048D0000423C4B20E461546D7210DEB0302204631
:1048E000FCF73CFF019B1BBA1A0DC3F30B2332806C
:1048F00020462B8001224B21FCF7FEFE00224B219B
:104900002046FCF7F9FE02B070BD000010B50A4B5E
:104910001A78904204460DD0597888420AD00AB1DC
:1049200041B901229C54FCF7E5FE2046BDE8104049
:10493000FFF78BBF10BD00BF6416002010B5C4B2D6
:1049400009212046FCF7F0FE40F00100C2B2092127
:104950002046BDE81040FCF7CFBE10B5C4B2092117
:104960002046FCF7E1FE092100F0FE022046BDE8EA
:104970001040FCF7C1BE38B5C4B20D4620460A212E
:10498000FCF7D2FE40EA0502D2B220460A21BDE879
:104990003840FCF7B1BE07B50190FCF7ACFE0198BA
:1049A0001F21FFF7E8FF019803B05DF804EBFFF764
:1049B000C5BF38B5C4B20D4620460A21FCF7B4FE87
:1049C00020EA0502D2B220460A21BDE83840FCF7B1
:1049D00093BE10B50446FFF7C0FF20461F21BDE877
:1049E0001040FFF7E6BF10B5C0B20C460B21FCF734
:1049F0009BFE204010BD1F21FFF7F5BF0A46C0B245
:104A00000B21FCF779BE1F21FFF7F8BF38B5C4B200
:104A10000D4620461721FCF787FE20EA0502D2B298
:104A200020461721BDE83840FCF766BE70B5C4B219
:104A3000064604212046FCF777FE042100F0FB0225
:104A400005462046FCF758FE3046F021FFF7DEFF12
:104A500005F0F80220460421FCF74EFE49222021F1
:104A60002046FCF749FE0220FCF78EFE204601227C
:104A70002121FCF741FE20469A224121FCF73CFE11
:104A8000204601224A21FCF737FE204601224B2115
:104A9000FCF732FE204600224B21FCF72DFE20467B
:104AA00001225621FCF728FE204601225821FCF75E
:104AB00023FE204601224021FCF71EFE2046FF2255
:104AC0000B21FCF719FEBDE870400220FCF75CBE2C
:104AD000054BD3F8882042F47002C3F888204FF0C9
:104AE00000629A60704700BF00ED00E008B50B4B14
:104AF0001A6842F400721A601A6842F480621A60FE
:104B00001A6842F480721A60032000F02FF8002027
:104B1000FDF7EEF8FCF7C0FE002008BD003C0240A7
:104B2000034A044B11681B780B441360704700BFA5
:104B300094A80020C0000020014B1868704700BFF7
:104B400094A8002038B50446FFF7F6FF631C1CBF8D
:104B5000054B1B78054618BFE418FFF7EDFF431B14
:104B6000A342FAD338BD00BFC00000200749CA687D
:104B700022F4E0620302120403F4E063120C134314
:104B800043F0BF6343F40033CB60704700ED00E0B7
:104B9000164B30B5DC68C4F30224C4F10705231DAD
:104BA000042D28BF0425062B4FF0FF338CBF033C98
:104BB000002403FA05F521EA0501A34022EA0302D5
:104BC000A140002841EA0203ACBF00F16040084A5E
:104BD0004FEA0313B8BF00F00F00DBB2AABF00F525
:104BE0006140135480F8003330BD00BF00ED00E099
:104BF00014ED00E0002808DB4209012300F01F004B
:104C000003FA00F0014B43F82200704700E100E096
:104C100010B5044650B1437903F0FF0213B9027195
:104C2000FCF75AFE01236371002010BD0120FCE750
:104C300010B5044630B390F8393003F0FF021BB9C9
:104C400080F83820FCF760FE22686168022384F84F
:104C50003930136823F440330B431360536BA1685E
:104C600023F007030B435363136CE16823F47F5372
:104C700023F03F030B43136400200123E06384F817
:104C8000393010BD0120FCE770477047036870B5EC
:104C90005E681D68F207044614D5E90512D51A6846
:104CA00022F480721A60C26B42F00102C2630122D8
:104CB0009A60042380F83930002380F83830436943
:104CC00003B19847B20616D5AB0414D523681A6809
:104CD00022F400521A6020229A60E36B43F0020330
:104CE000E363042384F83930002384F8383063699F
:104CF0000BB120469847300716D5290514D52368EF
:104D00001A6822F400621A6008229A60E36B43F08A
:104D10000403E363042384F83930002384F8383033
:104D200063690BB12046984772070BD56B0509D50F
:104D300023681A6822F480621A6004229A6020466E
:104D4000FFF7A2FFB00714D5A90512D523681A688A
:104D500022F400721A6002229A60E36BE36301237B
:104D600084F83930002384F8383023690BB12046A9
:104D70009847F20613D5EB0411D523681A6822F47C
:104D800080521A6010229A60E36BE363012384F877
:104D90003930002384F838302046FFF776FF70BDA5
:104DA000F0B590F83830012B4FF002032BD00122E0
:104DB00080F8393080F8382000EB0113D3E907423E
:104DC0005D6A184F44EA0242093C012C9CBF05F081
:104DD0007F431A434FEA0116036888BF42EA05621F
:104DE00099B9596A39400A435A62012C82699A6119
:104DF00003D8426A22F07F429A62012380F8393058
:104E0000002380F838301846F0BDD96939400A438C
:104E1000DA618219012C92691A619CBF25F07F45E5
:104E20001D62EAE7F0FFFC002DE9F74FDFF8C481CF
:104E30006E4ADFF8C49100230D6801249C4004EA07
:104E40000506AC4340F0B8804C6824F0100C4FEAE3
:104E5000430E03250CF1FF3705FA0EF5012F6FEA1B
:104E6000050511D8876807EA050ACF6807FA0EF723
:104E700047EA0A078760476827EA060AC4F300176B
:104E80009F4047EA0A074760C76807EA050A8F6834
:104E900007FA0EF747EA0A07BCF1020FC76016D1FE
:104EA0004FEAD30A00EB8A0A03F0070BDAF8207006
:104EB0004FEA8B0B4FF00F0C0CFA0BFC27EA0C0C93
:104EC0000F6907FA0BF747EA0C07CAF82070076862
:104ED0003D4004F0030707FA0EFE4EEA05050560A3
:104EE000E50069D54FF0000BCDF804B0D8F8447058
:104EF0003F4D47F48047C8F84470D8F8447007F431
:104F000080470197019F23F0030707F1804707F5CA
:104F10009C3703F0030ED7F808A04FEA8E0E4FF02F
:104F20000F0C0CFA0EFCA8422AEA0C0C4BD005F52B
:104F30008065A84249D005F58065A84247D005F5AF
:104F40008065A84245D005F58065A84243D0484514
:104F500043D005F50065A84241D005F58065A8421B
:104F60003FD005F58065A8423DD005F58065A84293
:104F70000CBF09250A2505FA0EF545EA0C05BD60AA
:104F80001568F74314F4803F0CBF3D40354315606E
:104F9000556814F4003F0CBF3D403543556095689B
:104FA00014F4801F0CBF3D4035439560D568A402C2
:104FB00054BF3D403543D5600133102B7FF43CAFE7
:104FC00003B0BDE8F08F5D46D5E70125D3E70225A4
:104FD000D1E70325CFE70425CDE70525CBE7062557
:104FE000C9E70725C7E70825C5E700BF003C014022
:104FF0000000024000380240001402400AB1816102
:1050000070470904FBE701684B6913F480634FF0B4
:10501000000210D06FF480634B612023026380F89C
:105020003D3080F83E20036C80F83C2043F00403C0
:10503000036401207047184670472DE9F04104468B
:105040000F46164698462568686927EA000080B230
:10505000B8B16B695A0516D52B6843F400732B6001
:105060006FF480636B6120220023236384F83D206A
:1050700084F83E30226C42F00402226484F83C3012
:105080000120BDE8F081731CDED0FFF755FDA0EBD9
:105090000800B04201D8002ED5D10023202223637E
:1050A00084F83D2084F83E30226C42F02002E4E790
:1050B00070B504460D46164623685B695B0701D54B
:1050C000002070BD2046FFF79EFFA8B96A1CF3D0F0
:1050D000FFF732FD801BA84201D8002DECD1002340
:1050E0002022236384F83D2084F83E30226C84F82B
:1050F0003C3042F0200222640120E2E770B5044611
:105100000D46164621684B6913F0400301D000207C
:1051100010E04A69D2060ED56FF010024A612022D3
:10512000236384F83D2084F83E30226C226484F8A6
:105130003C30012070BDFFF7FFFC801BA84201D866
:10514000002DDFD100232022236384F83D2084F842
:105150003E30226C42F02002E8E72DE9F846064690
:105160000F4691461D464FEA114A3368BAF1010FC6
:105170000CBF5C699C6927EA0404A4B2B4FA84F405
:105180006409A14501D0002017E06A1CEED0FFF7AA
:10519000D3FC089BC01AA84201D8002DE5D10023FA
:1051A0002022336386F83D2086F83E30326C86F844
:1051B0003C3042F0200232640120BDE8F88670B530
:1051C00004460D46164623685B691B0601D5002080
:1051D00070BD2046FFF717FFA8B96A1CF3D0FFF790
:1051E000ABFC801BA84201D8002DECD1002320226B
:1051F000236384F83D2084F83E30226C84F83C30F0
:1052000042F0200222640120E2E700002DE9F04391
:105210001546026885B0DDE90C789946136843F4B9
:10522000807313600E463B46CDF8008000224FF09D
:1052300001110446FFF791FF236838B11B68DB05B5
:1052400002D54FF40073236403200AE006F0FE0643
:105250001E61194943463A462046FFF7EEFE18B153
:10526000012005B0BDE8F083236803905A690392DA
:105270009B690393424639462046039BFFF79FFFF5
:1052800040B1236C042B01BF2268136843F4007300
:105290001360E5E7B9F1010F236802D1EDB21D619A
:1052A000DFE72A0A1A61394642462046FFF787FFA0
:1052B0000028E6D12368F1E7020001002DE9FF474D
:1052C0009A46036815461A6842F480621A601A68A2
:1052D000DDE90C7842F480721A600E463B46CDF848
:1052E000008000224FF001110446FFF736FF2368CB
:1052F00048B11B68DB0502D54FF40073236403201B
:1053000004B0BDE8F0875FFA86F906F0FE061E617C
:105310002A4943463A462046FFF78FFE08B101204E
:10532000EEE7236803905A6903929B690393424610
:1053300039462046039BFFF742FF40B1236C042B04
:1053400001BF2268136843F400731360E7E7BAF102
:10535000010F23681AD1EDB21D614246394620463D
:10536000FFF72DFF0028E9D12268136843F480730A
:1053700013604FF001110246CDF800803B462046F5
:10538000FFF7EBFE226860B11368B3E72A0A1A61DF
:10539000394642462046FFF712FF0028CED1236847
:1053A000D9E749F001031361044943463A462046D0
:1053B000FFF743FE003818BF0120A1E702000100FB
:1053C00070B5044608B9012070BD90F83D3003F077
:1053D000FF021BB980F83C20FCF7B8FA242384F8BC
:1053E0003D3023681A6822F001021A601A6842F4FC
:1053F00000421A601A6822F400421A6000F06CFE43
:105400003F4A6368934294BF3E4A3F4A90428CBFF2
:1054100000220122002AD6D121683C4E4A68B0FB06
:10542000F6F622F03F0232434A60354A0D6A934253
:1054300084BF4FF49672724325F03F0591BF721CF2
:105440004FF47A76B2FBF6F201322A430A62CD6952
:10545000421E2B4825F44F45834225F0FF0532D8E4
:105460005B00B2FBF3F340F6FC720133134242D00F
:10547000C3F30B032B43CB61D4E907300A68034322
:1054800022F0C00213430B608A68D4E9030322F4BC
:105490000342034322F0FF0213438B60D4E905303B
:1054A000CA68034322F0FF021343CB600B6843F04A
:1054B00001030B6000202023206484F83D3020632A
:1054C00084F83E0080E7A06850B903EB4303B2FBC9
:1054D000F3F30133C3F30B037BB143F40043C9E798
:1054E00019204343B2FBF3F30133C3F30B0323B19E
:1054F00043F44043BEE70423BCE70123BAE700BFFF
:10550000A08601007F841E00FF083D0040420F007E
:105510002DE9F743044699460C9E0F469046FFF747
:105520000BFB94F83D30202B054603D0022003B03E
:10553000BDE8F08300903C49192301222046FFF783
:105540000CFE0028F2D194F83C30012BEED02068FC
:10555000012384F83C300368D9075EBF036843F039
:1055600001030360036823F400630360212384F8CC
:105570003D30402384F83E30002323640A9B63625D
:10558000BDF82C306385638D2385284BE362CDE91C
:1055900000654B46424639462046FFF737FE002855
:1055A0002AD00120C3E7FFF70AFE40B1236C042B89
:1055B00001BF2268136843F400731360F1E7636A64
:1055C00027681A4612F8011B39616262628D218DCB
:1055D000013A92B262857A69481E80B252072085EC
:1055E0000AD548B15A783A6102336362638D013B50
:1055F00002399BB221856385238D2A463146204698
:10560000002BD0D1FFF754FD0028CFD122681368BA
:1056100043F400731360202384F83D3084F83C0089
:1056200084F83E0083E700BF020010000000FFFF87
:105630002DE9F043044687B09946109F0D469046E9
:10564000FFF77AFA94F83D30202B064604D0022565
:10565000284607B0BDE8F08300907649192301225F
:105660002046FFF77AFD0028F1D194F83C30012B59
:10567000EDD02068012384F83C300368DB075EBF6F
:10568000036843F001030360036823F400630360CD
:10569000222384F83D30402384F83E3000232364E5
:1056A0000E9B6362BDF83C306385638D2385624B3E
:1056B000E3622946CDE900764B4642462046FFF795
:1056C000FDFD054608B10125C2E7228D2368B2B968
:1056D00002905A6902929A690292029A1A6842F4F6
:1056E00000721A60DFF85481238D002B2CD1202208
:1056F00084F83D2084F83C3084F83E30A8E7012A45
:105700000AD11A6822F480621A6003905A690392DF
:105710009A690392039AE1E7022A0ED11A6822F4E9
:1057200080621A601A6842F400621A6004905A6932
:1057300004929B690493049BD4E705905A690592EF
:105740009B690593059BCDE7032B56D8012B15D1FB
:10575000324639462046FFF7D1FC0028B3D12368F2
:105760001A69636A1A70636A01336362238D013BAD
:105770002385638D013B9BB26385B5E7022B0096C1
:105780003B464FF000024146204619D1FFF7E5FCA9
:10579000002898D123681A6842F400721A601A69C6
:1057A000636A1A70626A531C6362238D013B23850E
:1057B000638D013B9BB2638523681B695370D2E7FD
:1057C000FFF7CBFC00287FF47EAF23681A6822F431
:1057D00080621A601A69636A1A70636A00960133FC
:1057E0006362238D013B2385638D013B9BB26385FF
:1057F00002463B4641462046C8E7324639462046E7
:10580000FFF77CFC00287FF45EAF23681A69636AA7
:105810001A70626A531C6362238D013B2385638D7A
:10582000013B9BB263852368596949077FF55CAFEB
:10583000C3E700BF020010000000FFFF04000100EA
:1058400010B590F83D30202BDCB216D1242380F81F
:105850003D3003681A6822F001021A605A6A22F089
:1058600010025A625A6A114359621A6842F00102E0
:105870001A6080F83D40002010BD0220FCE730B5E2
:1058800090F83D30202BDCB216D10268242380F83A
:105890003D30136823F001031360556A4FF6F0732F
:1058A0002B40194389B25162136843F0010313601E
:1058B00080F83D40002030BD0220FCE72DE9F04398
:1058C000D20104684F68E568D1F800C0D1F818909B
:1058D0008432A3180CF10106586800F47040586037
:1058E000E068C5F30B45C0F30B4030443D4440EA4B
:1058F00005405860E068CD68C0F30A000544986828
:1059000000F470409860E6688868C6F30A060130C3
:10591000304440EA0540986018690E6920F007009D
:1059200018614FF0000E1E619D6991F8320091F8E8
:105930003180C3F818E091F8305045EA096545EA2E
:10594000082545EA00459D61586920F0FF0058612F
:1059500048695861D86920F4E06020F00700D861F8
:10596000D1E907500543DD61986A486AC3F828E029
:1059700098621EB3012E23D0B01E022822D9072E12
:105980000CBF02200120DD6A05F0E025DD628D6A92
:10599000C96AA7EB0C0745437843033040EA05404A
:1059A000D862186B20F4FF6020F0070018631963B9
:1059B000A35843F00103A350BDE8F0830420E2E7BD
:1059C0000320E0E70220DEE738B50446002863D074
:1059D00090F8A13003F0FF021BB980F8A020FCF77B
:1059E00011F8022384F8A13023689A6922F07042EA
:1059F0009A61D4E901200243E06899690243206971
:105A000002430A439A619A68244960690A409A608D
:105A10009A6842EA0042A06902439A60DA68E06943
:105A20000A40DA60DA6842EA0042206A0243DA6039
:105A30001A69606A0A401A611A6942EA0042A06A59
:105A400002431A615A69114059615A69E16A42EA8E
:105A50000142216B0A435A61D96A94F8360094F8DE
:105A6000355001F07F41D962D96A94F834200A4355
:105A700042EA052242EA0042DA625A6B42F006022A
:105A80005A639A6942F001029A6100200123C4F826
:105A9000A40084F8A13038BD0120FCE700F800F034
:105AA00070477047036870B59E6B5D6B7207044664
:105AB00014D5690712D55A6B22F004025A630422E6
:105AC000DA63D0F8A43043F00103C0F8A430002317
:105AD00080F8A12080F8A030FFF7E2FFB20716D5CA
