:020000040800F2
:1000000000000320C9930008013F0008033F0008D7
:10001000053F0008073F0008093F000800000000F6
:100020000000000000000000000000002187000820
:100030000B3F000800000000B18700081588000889
:1000400019940008199400081994000819940008DC
:1000500019940008199400081994000819940008CC
:1000600019940008199400081994000819940008BC
:1000700019940008199400081994000819940008AC
:10008000199400081994000819940008199400089C
:10009000199400081994000819940008199400088C
:1000A000199400081994000819940008199400087C
:1000B000199400081994000819940008199400086C
:1000C000199400081994000819940008199400085C
:1000D000199400081994000819940008199400084C
:1000E000199400081994000819940008199400083C
:1000F000199400081994000819940008199400082C
:10010000199400081994000819940008199400081B
:1001100019940008199400080D3F0008199400086C
:1001200019940008199400081994000819940008FB
:1001300019940008199400081994000819940008EB
:1001400019940008199400081994000819940008DB
:1001500019940008199400081994000819940008CB
:1001600019940008199400081994000819940008BB
:100170001994000819940008199400080000000060
:10018000199400081994000819940008199400089B
:10019000199400081994000819940008199400088B
:0C01A000193F000819940008253F0008D2
:1001B00010B5054C237833B9044B13B10448AFF3A1
:1001C00000800123237010BD6001002000000000AA
:1001D000F8F8010808B5034B1BB103490348AFF316
:1001E000008008BD0000000064010020F8F801084C
:1001F00053B94AB9002908BF00281CBF4FF0FF318E
:100200004FF0FF3000F072B9ADF1080C6DE904CE8B
:1002100000F006F8DDF804E0DDE9022304B07047E1
:100220002DE9F047089E04468846002B4BD18A42B0
:10023000154667D9B2FA82F24AB1C2F1200701FA33
:1002400002F320FA07F7954047EA030894404FEA83
:10025000154E230CB8FBFEF71FFA85FC0EFB178822
:1002600043EA084307FB0CF1994209D9EB1807F15F
:10027000FF3080F01B81994240F21881023F2B44ED
:100280005B1AA4B2B3FBFEF00EFB103344EA034446
:1002900000FB0CFCA44509D92C1900F1FF3380F0B8
:1002A0000781A44540F2048102382C4440EA07400B
:1002B000A4EB0C0400271EB1D4400023C6E9004380
:1002C0003946BDE8F0878B4209D9002E00F0EB805B
:1002D0000027C6E9000138463946BDE8F087B3FA81
:1002E00083F7002F47D18B4202D3824200F2FA807B
:1002F000841A61EB030301209846002EE0D0C6E982
:100300000048DDE702B9FFDEB2FA82F2002A40F0CF
:100310008F80491B4FEA154E1FFA85F80127B1FB64
:10032000FEFC230C0EFB1C1143EA014308FB0CF1FD
:10033000994207D9EB180CF1FF3002D2994200F232
:10034000CD808446591AA3B2B1FBFEF00EFB101407
:1003500043EA044408FB00F8A04507D92C1900F132
:10036000FF3302D2A04500F2B6801846A4EB080481
:1003700040EA0C409FE7C7F1200CBB4022FA0CFE7C
:100380004EEA030E01FA07F420FA0CF521FA0CF3F9
:100390004FEA1E482543B3FBF8F92C0C08FB193330
:1003A0001FFA8EFA44EA034309FB0AF49C4202FA5C
:1003B00007F200FA07F10BD91EEB030309F1FF3036
:1003C00080F087809C4240F28480A9F10209734446
:1003D0001B1BADB2B3FBF8F008FB103345EA034436
:1003E00000FB0AFAA24508D91EEB040400F1FF3312
:1003F0006BD2A24569D90238744440EA0940A0FB97
:100400000289A4EB0A044C45C2464B4654D351D052
:10041000002E69D0B1EB0A0564EB030404FA0CFC6E
:10042000FD40FC404CEA0505C6E90054002747E7BB
:10043000C2F1200320FA03F7954001FA02F021FAF5
:1004400003F34FEA154E3843010CB3FBFEF71FFAD6
:1004500085F80EFB173341EA034107FB08F38B4293
:1004600004FA02F407D9691807F1FF3C2FD28B4236
:100470002DD9023F2944CB1A81B2B3FBFEF00EFB0B
:10048000103341EA034100FB08F38B4207D9691896
:1004900000F1FF3C17D28B4215D902382944C91A02
:1004A00040EA07473BE73746304609E70746E7E6B5
:1004B0001846FBE64145ABD2B8EB020A69EB0E02E7
:1004C00001381346A4E76046E9E7184695E7674612
:1004D000D1E781467CE702382C4447E7ACF1020CB7
:1004E0002B442FE7384608E73746E9E6704700BF58
:1004F00001F0FF01102A2BDB10F0070F08D010F8D5
:10050000013B013A8B422DD010F0070F42B3F6D1D8
:10051000F0B441EA012141EA014122F007047FF0F1
:1005200000070023F0E80256083C85EA010586EA48
:10053000010685FA47F5A3FA87F586FA47F6A5FA84
:1005400087F68EB9EED1F0BC01F0FF0102F0070290
:1005500032B110F8013B013A83EA010313B1F8D13B
:100560000020704701387047002D06BF354603381C
:10057000073815F0010F07D1013015F4807F02BF55
:10058000013015F4C03F0130F0BC0138704700BFA6
:10059000704770477047704770477047064B1A683E
:1005A000064B1A60064B1A68064B1A60064B1A680F
:1005B000064B1A60704700BF900100207C010020AC
:1005C00088010020800100208C010020840100208F
:1005D000034A00231360034A1360034A1360704701
:1005E00090010020880100208C01002000F062BBF7
:1005F00010B5082104461DF007FB204610BD10B5BC
:1006000040F22C4104461DF0FFFA204610BD0000C8
:1006100008B5054B1B682BB9044B054A05488721D3
:100620001EF0D6F9008808BDBCA300202BFA0108F3
:10063000ECFA010867FA010838B504462E30FFF7D6
:10064000E7FF054604F13400FFF7E2FF2B1A58429A
:10065000584138BD2DE9F34104469C30FFF7ECFFCB
:1006600004F5867604F1D4050746002837D000212A
:1006700030460BF074FB30460FF041F9284600215C
:100680000BF06DFB2846374D0FF039F92B6801331D
:100690000C2B04F522761CD82B6004F581672B689F
:1006A000314A0321384611F0F7FA3046C4F8C472D3
:1006B0000BF042FD2D4B0093694605233046ADF803
:1006C00004300BF056FD30460FF019F902B0BDE8CA
:1006D000F081002330462B600FF011F9DDE7304642
:1006E000FFF7AAFF804600B3284639460BF037FBD8
:1006F00028461F4D0FF003F92B683B2B04F532768B
:1007000003D930462F600FF0FAF82B68164A0133F0
:100710002B6004F20E450321284611F0BDFAC4F8FF
:10072000045330460BF008FDCDE72846FFF784FF61
:100730000028CBD00F4D2B683B2B04F5427604D913
:100740003046C5F800800FF0DAF82B68064A01330E
:100750002B6004F214450321284611F09DFAC4F8D9
:100760004453DEE79001002028FA010820FA01082E
:10077000880100208C010020F8B504469C30FFF76A
:100780005BFF04F5867604F1D405074618B3002113
:1007900030460BF0E4FA30460FF0B1F8002128465D
:1007A0000BF0DDFA28460FF0AAF8224A136804F588
:1007B0008165013B136003211F4A284611F06CFA42
:1007C00004F52274E56320460BF0B6FC2046BDE834
:1007D000F8400FF094B83046FFF72EFFA8B1394625
:1007E00028460BF0BCFA28460FF089F8134A136824
:1007F00004F20E45013B136003210F4A284611F015
:100800004BFA04F53274E563DDE72846FFF714FF81
:1008100070B10B4A136804F21445013B13600321C5
:10082000054A284611F038FA04F54274E563CAE730
:10083000F8BD00BF9001002028FA010888010020BF
:100840008C01002010B5044600F05AFB014B2360D8
:10085000204610BDB0FA0108704704387047704751
:1008600010B5102104461DF0CFF9204610BDA0F1AF
:100870000400F5E710B500228260044AC16002F16D
:10088000080420320460426010BD00BF20FB010854
:10089000704704387047704710B5102104461DF0AA
:1008A000B3F9204610BDA0F10400F5E710B5002211
:1008B0008260044AC16002F1080420320460426090
:1008C00010BD00BF48FB01087047704700F0EDBD48
:1008D000044B054A05491B78127809789C3009F0C9
:1008E00053B900BF84010020800100207C0100205A
:1008F00073B5154B154E1B6800F5916504463246DD
:100900000321284611F0C8F9114BC4F8805404F2B1
:100910008E4532461B680321284611F0BDF904F2CA
:100920004444256420460BF007FC0A4B00936946BB
:1009300017232046ADF804300BF01BFC20460EF0C8
:10094000DEFF02B070BD00BF9401002028FA01084C
:100950009801002020FA010810B54FF49561044673
:100960001DF052F9204610BD70B4D0F8A4143C23F9
:100970000131C0F8A41491FBF3F203FB1211E1B9A9
:100980000F4B104C1A68104E01323B2A1A6006D9E0
:1009900025683268196001353B2D07D8256022781B
:1009A00031781B789C3070BC09F0EEB80132172A00
:1009B00088BF0A4621603260F1E770BC704700BF13
:1009C00084010020800100207C01002010B5044635
:1009D00000F0AEFD014B2360204610BD78FB0108FE
:1009E000002202607047704770477047034A002337
:1009F0001360034A1360034A13607047A801002084
:100A0000A0010020A4010020064B1A68064B1A60C2
:100A1000064B1A68064B1A60064B1A68064B1A609A
:100A2000704700BFA801002094010020A001002011
:100A300098010020A40100209C01002000F0F5BED8
:100A400010B54FF46B7104461DF0DEF8204610BD62
:100A5000F7B504469C30FFF7EFFD04F1D4050746D7
:100A600078B3284600210BF07AF92846244D0EF081
:100A700046FF2B6801330C2B04F505761BD82B6041
:100A800004F564772B681F4A0321384611F004F9F6
:100A90003046C4F850720BF04FFB1B4B0093694675
:100AA00005233046ADF804300BF063FB30460EF002
:100AB00026FF03B0F0BD002330462B600EF01FFF71
:100AC000DEE72846FFF7B8FD0028F2D00F4D2B686F
:100AD0003B2B04F5157603D930462F600EF00FFF3F
:100AE0002B68084A01332B6004F29635032128460F
:100AF00011F0D2F8C4F8905230460BF01DFBD5E748
:100B0000A801002028FA010820FA0108A00100200D
:100B100038B504469C30FFF78FFD04F1D405E0B1F1
:100B2000002128460BF01BF928460EF0E8FE154A76
:100B3000136804F56475013B13600321124A2846CB
:100B400011F0AAF804F50574E56320460BF0F4FAF9
:100B50002046BDE838400EF0D2BE2846FFF76CFDB7
:100B600070B10A4A136804F29635013B1360032101
:100B7000054A284611F090F804F51574E563E4E79A
:100B800038BD00BFA801002028FA0108A0010020FC
:100B900010B5044600F0AAFE014B2360204610BDAC
:100BA000B4FB0108704704387047704710B5102136
:100BB00004461DF029F8204610BDA0F10400F5E719
:100BC00010B500228260044AC16002F1080420329C
:100BD0000460426010BD00BFF0FB0108704700F5E3
:100BE00096730868496803C37047704710B54FF49F
:100BF000AC7104461DF008F8204610BD10B504463F
:100C0000D0F85401FFF7EFFE2046BDE810400DF08C
:100C100049BD10B50446D0F83C0158B10368DB6803
:100C2000984738B1D4F83C0103689B689847002383
:100C3000C4F83C3110BD000010B5044601F096F92F
:100C4000014B2360204610BD20FC010800207047A6
:100C500081807047C1807047018170474181704732
:100C600070477047704770477047C38810B4D21AF6
:100C700083885DF8044BC91A036812B21B6D09B270
:100C800018474FF6FF7383814FF0FF3303621368F9
:100C9000C361106070477047704790F825201AB103
:100CA00090F8242002B11860704770477047704771
:100CB0007047704703689B6B1847704730B4C5682E
:100CC00044686A100346ED0704EB02009B6848BFC6
:100CD000A25830BC48BFD358184743682BB183682B
:100CE0002BB9C06800F0010070471846704701201A
:100CF000704710B5102104461CF086FF204610BD39
:100D000010B540F22C4104461CF07EFF204610BD79
:100D100000F5A273994210B5044605D10DF0EAFD25
:100D2000BDE8104001F06AB900F5C673994209D1D7
:100D30000DF0E0FD01F062F92368DB6A2046BDE8B2
:100D40001040184700F55273994202D103681B6B9B
:100D5000F5E700F56173994202D103685B6BEEE73A
:100D600000F57074A14205D10DF0C4FDBDE810403E
:100D700001F074B910BD00000A4A026000228280AE
:100D8000C280028142818281C28102824282C0E9A4
:100D90000522C2610284428480F82420012280F866
:100DA00025207047D424020870B503680446DB6A26
:100DB000154698472368294620461B6BBDE87040BE
:100DC000184770B504461E46BDF91050FFF7ECFFFA
:100DD0002368314620465A6B9047236829462046AF
:100DE0009B6BBDE870401847F8B5018F4FF6FF7355
:100DF0009942064632D01B4B1B682BB91A4B1B4A33
:100E0000AE211B481DF0E4FD1A4A12888A4203D81D
:100E1000194B164AAF21F4E713F81120174B1B6842
:100E200053F82250164B186801F0FCFE2B68074659
:100E300001469B6A284698472B6804461B6C394636
:100E4000284698472B6814FB00F45B6A394628460D
:100E50009847E4B2204486F84500F8BD002380F8A6
:100E60004530FAE784A3002077FC010890FD0108D3
:100E7000B9FC010888A30020FAFC01088CA300201B
:100E800090A3002010B52622044600211DF01BFE71
:100E90002046FFF771FF094B2360094BA3624FF611
:100EA000FF73A3854FF47F020023C4E90C3284F85A
:100EB000383084F83930204610BD00BF5C1E02086F
:100EC00020FA010810B52622044600211DF0FBFD82
:100ED0002046FFF751FF0023A36284F82C30012342
:100EE00084F82430054A22604FF6FF73E385238699
:100EF00084F83230A386204610BD00BFEC1D0208E6
:100F00002DE9F04F044699B0A14600250FF05AF89C
:100F1000C24BE56349F8403B2622294648461DF06E
:100F2000D2FD4846FFF728FF04F16C0AFF27BC4BAF
:100F3000236426224FF6FF73294684F86670A5665F
:100F4000504618AEADF858301DF0BDFD5046FFF7C5
:100F500013FFB44BE36636F8083DA4F892303146EF
:100F600084F8947050460BF0A4FEAF4BE36604F196
:100F70009C031846A4F89650A4F898500993FFF7DC
:100F8000A1FF04F1D40318460A93FFF79BFF04F571
:100F9000867318460B93FFF795FF04F5A273184666
:100FA00002930BF0C9FF04F5C673184603930BF0C8
:100FB000C3FF04F5EA7318460C93FFF763FF04F5CB
:100FC000047318460D93FFF75DFF04F5137318467D
:100FD0000E93FFF757FF04F522731846934F0493BF
:100FE000FFF750FF04F53273C4F888721846C4F84E
:100FF000C4520593FFF746FF04F54273C4F8C87264
:101000001846C4F804530693FFF73CFF04F55273E7
:10101000C4F808731846C4F844530F930BF022FE2B
:1010200004F56173184610930BF01CFE04F5707301
:10103000184607930BF080FF7D4BC4F81C344FF427
:10104000A0777C4BC4F824344FF07F4B2A4600979E
:10105000F02329464846C4F82044C4F82854FFF732
:10106000B0FE4FF00B0331465046C4F868B0ADF8FF
:1010700058300BF0DFF8F02300972A4629465046F7
:10108000FFF79FFE2A46294650460BF0B1F8092784
:101090002A4629460998FFF787FE324615A909987E
:1010A000A4F8D070ADF85450ADF858700BF072FA47
:1010B000992229460A98FFF777FE324615A90A9821
:1010C000A4F80871ADF85450ADF858700BF062FAFE
:1010D0004C2229460B98FFF767FE324615A90B985C
:1010E000A4F84071ADF85450ADF858700BF052FAB6
:1010F0004FF48272B4210298FFF756FE4FF00108B8
:10110000324615A90298ADF85880ADF854500BF04E
:1011100041FA0298A4F87C51FFF766FE4FF0FF33C6
:10112000454AC4F8843104F21C43C4F86C31C4F855
:1011300080215A214FF4827203980893FFF734FEFE
:10114000324615A90398ADF85880ADF854500BF00D
:1011500021FAA4F8C4810398DFF8FC80FFF744FE6D
:101160004FF0FF33354AC4F8CC31089BC4F8C8218E
:10117000C4F8B4315E2253210C98FFF715FE304BB2
:101180000C98C4F804B202223146A4F8085216930F
:10119000ADF85C200AF0EDFFA8224D210D98FFF775
:1011A00003FE274B0D98C4F840B24FF003023146BE
:1011B000A4F844521693ADF85C200AF0DAFF12222C
:1011C00053210E98FFF7F0FD1D4B0E98C4F87CB22A
:1011D00004223146A4F880521693ADF85C200AF040
:1011E000C8FF1B22AF210498FFF7DEFDD8F80020CE
:1011F000C4F8B8B204F58163A4F8BC5211932AB9BB
:10120000104B114AAE2111481DF0E2FB104B1A8819
:10121000092A23D80F4B0C4AAF21F4E754FD0108EB
:10122000041F0208E4210208681F02081C200208AB
:1012300064FC0108110D0008B7FF00FFFB00FFFF71
:1012400020FA010877FC010890FD0108B9FC0108AB
:1012500088A30020FAFC010884A300208C4B3946A7
:10126000186801F0DFFC032103468A4A119810F048
:1012700013FD119AC4F8C42204980AF05DFF0523F7
:10128000854A0498ADF85C30314616920AF071FF39
:101290005222AF210598FFF787FDD8F80030C4F837
:1012A000F8B2A4F8FC5204F20E47002BA8D07B49F8
:1012B0000B880A2BAED9764B0A21186801F0B2FCD4
:1012C000744A03460321384610F0E6FCC4F8047360
:1012D00005980AF031FF06276F4A059816923146A5
:1012E000ADF85C700AF045FF9022AF210698FFF739
:1012F0005BFDD8F80030C4F838B3A4F83C5304F2CE
:10130000144B002B3FF47CAF64490B880B2B81D925
:101310005F4B0B21186801F085FC5E4A03460321F0
:10132000584610F0B9FCC4F844B306980AF004FF1C
:101330004FF00708584A069816923146ADF85C807F
:101340000AF017FF0F98C822B421FFF72DFD15AA48
:101350004FF00103ADF8503013A913460F980096D3
:1013600014AAADF84C50ADF85480ADF858804FF049
:10137000160B0BF0D3FB4FF00F08089BC4F870332B
:101380001098A4F880B3A4F88283C8225A21FFF7EA
:101390000BFD15AA4FF00103ADF8503013A9134609
:1013A0001098009614AAADF84C50ADF85470ADF8F2
:1013B00058700BF0B3FB089BC4F8AC332946079870
:1013C000A4F8BCB3A4F8BE834FF48272FFF7ECFC20
:1013D000324615A94FF001030798ADF85450ADF807
:1013E00058300BF0D7F80823A4F8F8330798FFF724
:1013F000FBFC2B4BC4F8FC334FF0FF33251DC4F826
:101400000034089BC4F8E8334946284608F0B0FC8D
:101410005146284608F0ACFC0999284608F0A8FC7B
:101420000A99284608F0A4FC0B99284608F0A0FC6D
:101430000299284608F09CFC0399284608F098FC7D
:101440000C99284608F094FC0D99284608F090FC69
:101450000E99284608F08CFC0499284608F088FC70
:101460000599284608F084FC0699284608F080FC77
:101470000F99284608F07CFC1099284608F078FC63
:101480002846079908F074FC204619B0BDE8F08F93
:1014900090A3002074FC010820FA010888A3002012
:1014A000D5FF00FF70477047704710B503680446CA
:1014B000DB6A9847236820461B6BBDE8104018473D
:1014C000704730B4C56844686A100346ED0704EB02
:1014D00002009B6848BFA25830BC48BFD358184789
:1014E00043682BB183682BB9C06800F001007047D6
:1014F000184670470120704710B5102104461CF0B3
:1015000083FB204610BD10B540F2A44104461CF0F8
:101510007BFB204610BD00F57370884208B505D1ED
:101520000DF0E8F9BDE8084000F078BD08BD000006
:101530002DE9F04F04468BB0A2464FF000080EF0A4
:1015400041FDA64BC4F83C804AF8403B4146262268
:1015500050461DF0B8FA5046FFF70EFC04F16C0639
:10156000FF259F4B236426224FF6FF73414684F8E4
:101570006650C4F8688030460AAFADF820301DF0E0
:10158000A2FA3046FFF7F8FB964BE36637F8083DC2
:10159000A4F89230394684F8945030460BF089FB19
:1015A00004F19C05904BE366A4F89680A4F898801B
:1015B000284608F073FA04F57373184602930BF08B
:1015C00051FB04F58163184604F2444B0393FFF783
:1015D00059FC5846FFF756FC844BC4F84434844BFE
:1015E000C4F89434834BC4F89C344FF4A07342463F
:1015F0004FF07F494146C4F88084C4F88484C4F81D
:10160000A08400935046F023C4F89844FFF7D9FB18
:101610000C23C4F8689039463046ADF820300AF003
:1016200009FE4FF4A0734246414600933046F02332
:10163000FFF7C7FB4246414630460AF0D9FD424615
:1016400041462846FFF7B0FB74231A46022128467C
:1016500008F0E8F84F2304220521284607F08CFF04
:10166000402302220421284607F07AFF41462846FB
:1016700008F037F82C2302220321284607F064FFE4
:101680004146284608F013F80A22434611462846E8
:1016900007F07EFF584A0A21284607F0E0FF41463E
:1016A0004FF482720298FFF77FFB0123ADF81830E8
:1016B0000823ADF81C30ADF8203006AA07AB05A909
:1016C00002980097ADF814800BF028FA0F23A4F8C5
:1016D0000434A4F8063404F29443F022C4F8F4333A
:1016E00072210398FFF760FB444BC4F83894A4F8C8
:1016F0003C840893394616230398ADF824300AF049
:1017000038FD40F20F1272215846FFF74DFBC4F826
:101710007494DFF80891A4F87884D9F8003004F5BF
:1017200091682BB9364B374AAE2137481DF050F936
:10173000364B1B88182B03D8354B324AAF21F4E7C0
:10174000344B1821186801F06DFA334A034603211F
:10175000404610F0A1FAD9F80030C4F8808404F2B1
:101760008E48002BDED0294A1388192BE4D9294B47
:101770001921186801F056FA274A0346032140460A
:1017800010F08AFA5846C4F884840AF0D5FC1B4B42
:10179000089339461723271D5846ADF824300AF020
:1017A000E8FC5146384608F0E3FA3146384608F07E
:1017B000DFFA2946384608F0DBFA0299384608F085
:1017C000D7FA0399384608F0D3FA3846594608F054
:1017D000CFFA20460BB0BDE8F08F00BFE0FD010856
:1017E000041F0208E4210208681F0208942002086E
:1017F000C8FD010817150008CB02010820FA0108EE
:1018000077FC010814FE0108B9FC010888A3002038
:10181000FAFC010890A3002074FC010884A30020B6
:101820007047704770477047704703685B6B184795
:10183000704730B4C56844686A100346ED0704EB8E
:1018400002009B6848BFA25830BC48BFD358184715
:1018500043682BB183682BB9C06800F00100704762
:10186000184670470120704710B5102104461CF03F
:10187000CBF9204610BD10B54FF46B7104461CF037
:10188000C3F9204610BD00F58673994210B5044691
:1018900005D10DF02FF8BDE8104000F0AFBB00F50A
:1018A000AA73994209D10DF025F800F0C7FB23680F
:1018B0009B6B2046BDE81040184700F52573994200
:1018C00002D10368DB6AF5E700F53473994202D16F
:1018D00003681B6BEEE700F54374A14205D10DF0E0
:1018E00009F8BDE8104000F0A9BB10BD2DE9F04F8C
:1018F000044695B0A24600250EF064FBAA4BE563B2
:101900004AF8403B2622294650461DF0DCF8504656
:10191000FFF732FA04F16C09FF27A44B2364262257
:101920004FF6FF73294684F86670A566484614AEE4
:10193000ADF848301DF0C7F84846FFF71DFA9C4B3C
:10194000E36636F8083DA4F89230314684F8947086
:1019500048460BF0AEF9974BE36604F19C0318463A
:10196000A4F89650A4F898500793FFF7ABFA04F147
:10197000D40318460893FFF7A5FA04F586731846B2
:1019800002930BF0D9FA04F5AA73184603930BF0EF
:10199000D3FA04F5CE7318460993FFF773FA04F5EA
:1019A000EC73184604F5057B0A93FFF76BFA58466B
:1019B000FFF768FA804FC4F8147204F515731846DF
:1019C000C4F850520493FFF75DFA04F52573C4F888
:1019D00054721846C4F890520B930BF043F904F577
:1019E000347318460C930BF03DF904F54373184615
:1019F00005930BF0A1FA04F5557318460D93FFF704
:101A000041FA6E4BC4F89C334FF4A0776C4BC4F88A
:101A1000A4332A460097F02329465046C4F8A04331
:101A2000C4F8A853FFF7CDF94FF07F43A3663146C2
:101A30000A234846ADF848300AF0FCFBF023009733
:101A40002A4629464846FFF7BCF92A462946484611
:101A50000AF0CEFB0927472229460798FFF7A4F989
:101A6000A4F8D070324611A90798ADF84870ADF8C7
:101A700044500AF08FFD8C2229460898FFF794F90C
:101A8000A4F80871324611A90898ADF84870ADF86D
:101A900044500AF07FFD4FF4827229460298FFF706
:101AA00083F94FF00107324611A90298ADF848704A
:101AB000ADF844500AF06EFD0C23A4F844310298AE
:101AC000FFF792F93F4BC4F848314FF0FF33C4F8A9
:101AD0004C3104F56773C4F834314FF482725A21E3
:101AE00003980693FFF760F9324611A90398ADF801
:101AF0004870ADF844500AF04DFD0D23A4F88C3128
:101B00000398314FFFF770F9304BC4F890314FF024
:101B1000FF33C4F89431069BC4F87C319B224B21DF
:101B20000998FFF741F94FF07F43C4F8CC313146B3
:101B30000E230998A4F8D051ADF84C3012970AF052
:101B400018FB56225A210A98FFF72EF94FF07F43CF
:101B5000C4F8083231464FF00F030A98A4F80C522B
:101B6000ADF84C3012970AF004FB4D22AF215846D5
:101B7000FFF71AF94FF07F43C4F84432144BA4F82E
:101B800048521B6804F564782BB9124B124AAE21F7
:101B900012481CF01DFF124B1B88112B24D8114B2F
:101BA0000D4AAF21F4E700BF64FE0108041F0208DC
:101BB000E4210208681F02081C2002084CFE0108EC
:101BC00087180008B7FF00FF20FA0108FB00FFFF9D
:101BD00084A3002077FC0108A0FE0108B9FC0108DD
:101BE00088A30020FAFC01087D4B1121186801F040
:101BF00019F87C4A03460321404610F04DF8C4F81A
:101C0000508258460AF098FA102331465846ADF8EB
:101C10004C3012970AF0ADFA8C22AF210498FFF7EE
:101C2000C3F84FF07F42C4F884226F4AA4F8885268
:101C3000136804F29638002BA7D06C4A1388132B34
:101C4000ADD9674B1321186800F0ECFF654A0346D5
:101C50000321404610F020F8C4F8908204980AF05E
:101C60006BFA122331460498ADF84C3012970AF003
:101C700080FA0B98C822B421FFF796F84FF00103C1
:101C8000ADF8403011AA0723ADF84430ADF8483024
:101C90000FA913460B98009610AAADF83C504FF0D0
:101CA00016080AF03BFF069BC4F8BC324FF00F0247
:101CB000A4F8CE220C98A4F8CC82C8225A21FFF7AF
:101CC00073F84FF00103ADF8403011A90623ADF8C9
:101CD0004430ADF848300B4610A90A460C980096DF
:101CE0000FA9ADF83C500AF019FF069BC4F8F83272
:101CF0004FF00F02A4F80A230598A4F808834FF4C4
:101D00008272B421FFF750F8324611A94FF0010357
:101D10000598ADF84450ADF848300AF03BFC142368
:101D2000A4F844330598FFF75FF8314BC4F8483303
:101D30004FF0FF33C4F84C33069BC4F834331F22F2
:101D40000D984A21FFF730F84FF07F43C4F88433F1
:101D5000A4F888531523251D31460D98ADF84C3055
:101D600012970AF006FA5146284608F001F849464B
:101D7000284607F0FDFF0799284607F0F9FF089964
:101D8000284607F0F5FF0299284607F0F1FF03996E
:101D9000284607F0EDFF0999284607F0E9FF0A9960
:101DA000284607F0E5FF5946284607F0E1FF049969
:101DB000284607F0DDFF0B99284607F0D9FF0C995C
:101DC000284607F0D5FF0599284607F0D1FF284699
:101DD0000D9907F0CDFF204615B0BDE8F08F00BF8C
:101DE00090A3002074FC010884A3002088A3002095
:101DF000D5FF00FF7047704741607047704701236F
:101E0000037270477047704770477047704770475C
:101E100010B4C468416862100346E40701EB020095
:101E20009B6848BF8A585DF8044B48BFD358184791
:101E300043682BB183682BB9C06800F0010070477C
:101E4000184670470120704710B5142104461BF056
:101E5000DBFE204610BD10B50C2104461BF0D4FE5D
:101E6000204610BD10B54FF4AC7104461BF0CCFEFB
:101E7000204610BD10B5102104461BF0C5FE2046BB
:101E800010BD10B50CF036FD0368BDE810401B6BAB
:101E90001847000070B50446B2B0C0221D4902A820
:101EA0001CF006FE237C33B91B4B1B781BB10CF0D6
:101EB00021FD0CF079FD237C2F2B26D80325013D35
:101EC00025D0237C2F2B22D832AA02EB83036089F2
:101ED00053F8C06CE389A18996FBF3F203FB12630C
:101EE00013FB00F312FB01F2ADF804006068ADF8DB
:101EF0000610ADF80030ADF80220036869461B6992
:101F00009847237C01332374D9E70123237232B02D
:101F100070BD00BF10F9010830A300200023104A53
:101F20004360037203740F4B02601A880E4B1B88C8
:101F30009A420AD90732D21042810533062293FB16
:101F4000F2F383810823C381704707330621DB1036
:101F50000532838192FBF1F2C1814281704700BF5B
:101F600058FF010826A3002028A30020F8B5044646
:101F700017460E460CF06CFD144BC4F854611C60FF
:101F8000134E144B236000253068134BC4F83851AE
:101F9000C4F83C51C4F84031C4F84451C4F8485125
:101FA000C4F84C51C4F85071036801219B689847EC
:101FB000284600F0FDFD336893F876200AB1D86C0E
:101FC00000B9986814F0E1FC2046F8BD80A3002019
:101FD00034A30020F0FE0108D8FE0108064BC0F82B
:101FE00048310023C0F84C3100F5A073C0F844011B
:101FF000C0F83C31704700BFBD210008064BC0F857
:1020000048310023C0F84C3100F5A073C0F84401FA
:10201000C0F83C31704700BF89240008064BC0F867
:1020200048310023C0F84C3100F5A073C0F84401DA
:10203000C0F83C31704700BF25230008064BC0F8AC
:1020400048310023C0F84C3100F5A073C0F84401BA
:10205000C0F83C31704700BFE5250008064BC0F8CA
:1020600048310023C0F84C3100F5A073C0F844019A
:10207000C0F83C31704700BF412700082DE9F04708
:1020800007469068DDF820A0994603681B6A8846D9
:1020900015469847B0F5956F05D2424B424AA321A9
:1020A00042481CF095FC686803681B6A98470F2833
:1020B00003D83F4B3C4AA421F2E7E86803681B6A57
:1020C00098470B2803D83B4B374AA521E8E70CF08B
:1020D00011FC0CF05DFCD9F8000010B10368DB685E
:1020E0009847D9F8000010B103681B689847386812
:1020F00010B103685B699847D8F8000010B1036815
:102100005B689847386810B103681B689847D8F82F
:10211000000010B103689B689847E86803680021D5
:102120005B6A9847044620B1002343600372224B48
:102130000360A868036800215B6A9847064608B1F7
:10214000FEF744FC6868036800215B6A984705460F
:1021500010B13146FEF7AAFBC9F80040C8F800509C
:102160003E60E5B12B1DCAF80030C5F808A0336801
:10217000F5633046DB6898472B6828461B6898470C
:10218000214630460EF09BF8236820461B6998478D
:10219000236820465B6998472846BDE8F0872B46B0
:1021A000E1E700BF74FF010889010208020002088C
:1021B00043000208E600020834FF010807B5D0F822
:1021C00054310093D0F85021044B00F59C71044821
:1021D000FFF754FF03B05DF804FB00BF74A30020B9
:1021E00070A300202DE9F04707469068DDF820A095
:1021F000994603681B6A88461546984740F22B4368
:10220000984205D8414B424AA32142481CF0E0FBCA
:10221000686803681B6A98470F2803D83E4B3C4AFE
:10222000A421F2E7E86803681B6A98470B2803D8E3
:102230003A4B374AA521E8E70CF05CFB0CF0A8FB11
:10224000D9F8000010B10368DB689847D9F800009E
:1022500010B103681B689847386810B103685B6960
:102260009847D8F8000010B103685B689847386851
:1022700010B103681B689847D8F8000010B10368D4
:102280009B689847E868036800215B6A98470446A2
:1022900020B1002343600372214B0360A8680368E8
:1022A00000215B6A9847064608B1FEF7CBFA6868DA
:1022B000036800215B6A9847054610B13146FEF776
:1022C000D9FAC9F80040C8F800503E60E5B12B1DAE
:1022D000CAF80030C5F808A03368F5633046DB68FB
:1022E00098472B6828461B689847214630460DF0D2
:1022F000E6FF236820461B699847236820465B69F0
:1023000098472846BDE8F0872B46E1E774FF0108AF
:10231000940302080200020843000208E6000208D3
:1023200034FF010807B5D0F854310093D0F850219C
:10233000044B00F59C710448FFF754FF03B05DF8AF
:1023400004FB00BF74A3002070A3002003685B6A35
:10235000184700002DE9F04707469068DDF820A0F7
:10236000994603681B6A884614469847B0F5956FEE
:1023700005D2404B404AA32140481CF029FB60682D
:1023800003681B6A98470F2803D83D4B3A4AA4219B
:10239000F2E7E06803681B6A9847132803D8394BB3
:1023A000354AA521E8E70CF0A5FA0CF0F1FAD9F8C6
:1023B000000010B10368DB689847D9F8000010B13D
:1023C00003681B689847386810B103685B699847D1
:1023D000D8F8000010B103685B689847386810B1FE
:1023E00003681B689847D8F8000010B103689B6821
:1023F00098470021E068FFF7A9FF054608B1FFF7FD
:102400008DFDA068036800215B6A9847064608B105
:10241000FEF7DCFA6068036800215B6A98470446AF
:1024200010B13146FEF742FAC9F80050C8F8004032
:102430003E60E4B1231DCAF80030C4F808A0336838
:10244000F4633046DB689847236820461B6898474A
:10245000294630460DF033FF2B6828461B69984704
:102460002B6828465B6998472046BDE8F0872346DD
:10247000E1E700BF74FF01088D02020802000208B4
:1024800043000208E600020807B5D0F85431009373
:10249000D0F85021044B00F59C710448FFF75AFF17
:1024A00003B05DF804FB00BF74A3002070A30020FC
:1024B0002DE9F04707469068DDF820A099460368AB
:1024C0001B6A88461446984740F22B43984205D829
:1024D0003F4B404AA32140481CF07AFA60680368E9
:1024E0001B6A98470F2803D83C4B3A4AA421F2E7CD
:1024F000E06803681B6A9847132803D8384B354AAD
:10250000A521E8E70CF0F6F90CF042FAD9F8000042
:1025100010B10368DB689847D9F8000010B1036870
:102520001B689847386810B103685B699847D8F80A
:10253000000010B103685B689847386810B1036801
:102540001B689847D8F8000010B103689B6898474B
:102550000021E068FFF7FAFE054608B1FFF7DEFC50
:10256000A068036800215B6A9847064608B1FEF739
:1025700069F96068036800215B6A9847044610B1F6
:102580003146FEF777F9C9F80050C8F800403E60C0
:10259000E4B1231DCAF80030C4F808A03368F4631E
:1025A0003046DB689847236820461B6898472946D1
:1025B00030460DF084FE2B6828461B6998472B682F
:1025C00028465B6998472046BDE8F0872346E1E747
:1025D00074FF010898040208020002084300020880
:1025E000E600020807B5D0F854310093D0F8502126
:1025F000044B00F59C710448FFF75AFF03B05DF8E7
:1026000004FB00BF74A3002070A300202DE9F04755
:1026100007469068DDF820A0994603681B6A884643
:1026200014469847B0F56B7F05D2404B404AA32132
:1026300040481CF0CDF9606803681B6A98470F2872
:1026400003D83D4B3A4AA421F2E7E06803681B6ACD
:102650009847132803D8394B354AA521E8E70CF0F1
:1026600049F90CF095F9D9F8000010B10368DB685E
:102670009847D9F8000010B103681B68984738687C
:1026800010B103685B699847D8F8000010B103687F
:102690005B689847386810B103681B689847D8F89A
:1026A000000010B103689B6898470021E068FFF7BD
:1026B0004DFE054608B1FFF731FCA0680368002114
:1026C0005B6A9847064608B1FEF762FA60680368DD
:1026D00000215B6A9847044610B13146FEF770FA54
:1026E000C9F80050C8F800403E60E4B1231DCAF8A4
:1026F0000030C4F808A03368F4633046DB689847BC
:10270000236820461B689847294630460DF0D7FDC0
:102710002B6828461B6998472B6828465B699847B1
:102720002046BDE8F0872346E1E700BF74FF0108BB
:102730009F0502080200020843000208E6000208A2
:1027400007B5D0F854310093D0F85021044B00F570
:102750009C710448FFF75AFF03B05DF804FB00BF0B
:1027600074A3002070A3002013B5002249B102AB6E
:10277000019203F8052D0268946801AAA04702B0EF
:1027800010BD0846FBE74089704780897047808804
:10279000704783798088184480B27047C07900F010
:1027A0007F007047C079C0097047006A7047406A6F
:1027B000704770478B8880690A68DB0A50F82300ED
:1027C0001044704710B5C2B1137BB3B1547BD27AB9
:1027D000240204F4E0641443C26998B202EB840258
:1027E00013888B4202D192F9020010BD05D801383E
:1027F00080B204320028F3D1F7E70020F5E710B5E6
:10280000282104461BF000FA204610BD30B589B0DF
:102810000446BDF850500695BDF84C5005959DF8FE
:10282000405004959DF83C5003959DF83850029512
:102830009DF8345001959DF8305000950DF020F929
:10284000064B2360119BA361129BE361159B2362DE
:10285000169B6362204609B030BD00BFB006020877
:1028600030B5164D2C78BFF35B8F14F001048DB09A
:1028700021D128461BF09FF9E8B13F230793104B65
:102880000693104B05930123CDE903430423102243
:102890000D490894CDE90043CDE909440A23029487
:1028A0000A48FFF7B3FF28461BF091F9084A094987
:1028B00006481BF0A4F905480DB030BDAC0100205E
:1028C000E0560208000702088C4B0208B001002005
:1028D00000000020B327000830B5174D2C78BFF357
:1028E0005B8F14F001048DB023D128461BF063F9EF
:1028F000F8B13F230793114B0693114B0593082220
:102900000323CDE9033204210123CDE90031122252
:102910000C4908941923CDE9094402940A48FFF7A9
:1029200075FF28461BF053F9084A094906481BF071
:1029300066F905480DB030BDD8010020D856020810
:1029400004070208B44D0208DC010020000000204A
:10295000B327000830B5164D2C78BFF35B8F14F009
:1029600001048DB021D128461BF025F9E8B13F23A1
:102970000793104B0693104B10490894CDE904437C
:1029800004220123CDE90032CDE909440D22282398
:10299000CDE902440A48FFF739FF28461BF017F932
:1029A000084A094906481BF02AF905480DB030BD10
:1029B00004020020DC56020808070208B04E020894
:1029C0000802002000000020B327000830B5164D93
:1029D0002C78BFF35B8F14F001048DB020D1284612
:1029E0001BF0E9F8E0B13F230793104B0693104B1F
:1029F00010490894CDE9044304230122CDE90043A2
:102A0000CDE909441423CDE902440B48FFF7FEFE4B
:102A100028461BF0DCF8094A094907481BF0EFF883
:102A200005480DB030BD00BF30020020E45602085A
:102A30000C070208684F0208340200200000002042
:102A4000B3270008704710B5042104461BF0DCF8DA
:102A5000204610BD08B5042914D8DFE801F00307AB
:102A60000B0F0F0000F018F8006808BD00F014F814
:102A70004068FAE700F010F88068F6E700F00CF81C
:102A8000C068F2E70020F0E700487047240702081A
:102A90000D2070471A207047004870475C020020E4
:102AA00010B5FFF719FF064C2060FFF753FF606079
:102AB000FFF7D6FEA060FFF789FFE06010BD00BF02
:102AC0005C02002000207047002070470EB403B560
:102AD00003AB002153F8042B01930CF0EFFD02B07F
:102AE0005DF804EB03B070470CB407B504AB53F8C2
:102AF000042B01930CF0E2FD03B05DF804EB02B08F
:102B00007047000010B5C36B044673B3038E2BB936
:102B1000184B194ABF2119481BF05AFFC38D00EB0F
:102B200043035B8B0BB30EF0A7F9238E012B03D865
:102B3000134B144AC421EEE7E28D531C9BB2092BC0
:102B4000194688BFA3F10A0104EB410140F63F108A
:102B5000498B814209D10A2B04EB420228BF002392
:102B600004EB4303508B588351832046BDE810404B
:102B70000EF066B828080208550902083108020854
:102B800075080208830802080EF014B810B586B064
:102B900002AC84E806001A460AAB05930193099B30
:102BA00000932146089B0BF00CFA06B010BD000004
:102BB00038B5D8B9114B12481B681249BBB11A6815
:102BC0009C681A4402605A681A440A601C446CB13A
:102BD0000D4B00221A80FFF75FFF0546FFF75AFFF3
:102BE0000A4B1C600A4B1D600A4B188038BD0A4B0B
:102BF00003600A4B0B600A4B1C68E8E76C0200207C
:102C000070020020740200207802002084A30020BB
:102C10008CA3002088A30020A8190B08881A0B0891
:102C2000241B0B08044B1B6853F82100034B1B6843
:102C300003EB4000704700BF7402002070020020C8
:102C4000012380F8741080F87530704700207047B9
:102C500000207047836B0BB10846184770474FF64A
:102C6000FF707047406803689B691847704770475A
:102C7000034B902283F85A2383F85823704700BFF0
:102C800000E100E0094A0A49D3680A48C3F30A038D
:102C9000013B9BB20B801169C1F30A01013901802C
:102CA0001364536B43F001035363704700680140A2
:102CB0007C0200207A020020014B986A704700BF16
:102CC00084680140024B0122996243F8602C7047EE
:102CD0008468014070B5044607F0DDF92368DD6DB6
:102CE0000BF008FE01462046A8472368054AD3F8A2
:102CF00080502046AC460023A2F51631BDE8704056
:102D0000604700BF005802D008B531B90A4B0B4AE2
:102D10000B484FF425711BF05BFEC0E90F12003227
:102D20000849436418BF01220A700033064A18BFDD
:102D30000123137008BD00BF000A0208770A0208C9
:102D4000380A020830A3002031A3002007F08AB916
:102D500007F094B907F052B907F0ABBA10B50446C2
:102D600007F08EFF23682046D3F8A030BDE810405E
:102D7000184790F877301BB1406803681B68184704
:102D80001846704730B590F8744090F83410104BE6
:102D90008C421A780DD05AB90E4A0F490F48148840
:102DA0000F4D0C80018811802980048001221A7047
:102DB00030BD002AFCD00948074A01881180054A25
:102DC000074D14882C80118004800022EFE700BF9B
:102DD0002AA3002026A300202CA3002028A3002043
:102DE0002EA30020034B4FF080629A604FF0807258
:102DF0009A60704700E100E0084B4FF08062C3F832
:102E00008820BFF34F8FBFF36F8F4FF08072C3F8EE
:102E10008820BFF34F8FBFF36F8F704700E100E052
:102E200010B5134B134A1B6C1188134C8B4213D1F2
:102E3000124B198803F03AFD226892F8663001338C
:102E400082F8663000F026FA206807F019FF0020AB
:102E5000BDE8104000F029BC03F028FD002000F080
:102E600025FC20680368BDE81040DB69184700BFF7
:102E7000006801407C02002034A300207A02002078
:102E800003685B6C18470120704703689B6A18470A
:102E900082B0002301930D4B1A6B42F400021A63B7
:102EA0001A6B02F400020192019A1A6942F40002BC
:102EB0001A611A6922F400021A61054B054A1A6167
:102EC000054B4FF080629A6002B0704700380240B4
:102ED000F8A50020E52E000800E100E040F2EF3008
:102EE00070470000024B1B68586803685B6918470D
:102EF00034A3002008B50B280BD8DFE800F0120639
:102F0000100A0A0A0A0808080808012008BD052056
:102F1000FCE7054B054A064865211BF059FD0020DA
:102F2000F4E70220F2E700BFDF0A0208B40B020850
:102F3000FA0A020808B50A2809D8DFE800F01006E6
:102F40000E080808080606060600012008BD054B05
:102F5000054A064886211BF03BFD0020F6E70220CB
:102F6000F4E700BFDF0A0208000C0208FA0A0208B0
:102F7000F8B50C46487FFFF7BDFFA77F05463846EA
:102F8000FFF7B8FF06463846FFF7D4FFA38A628BE7
:102F9000D21A514B1A64A18A628B521A9A61A18A81
:102FA000228B521A1A615863A18AE28A42EA0142CC
:102FB0005A642269DA636268DA602268402A00F0A3
:102FC000838012D8042A49D0202A7DD0237F45EA65
:102FD0000365414B45F40035DD61A27F617F91427D
:102FE00014BF3E4A40F2012233E0B2F5807F1BD08D
:102FF000B2F5007F2FD0802AE8D1A068021DDA62E6
:10300000227F45EA026545F40035DD615E62226992
:103010005A6102784AB3012A3DD0314B314A3248D5
:103020004FF488711BF0D4FC217F304A42EA0162E0
:10303000DA61E1680A02480102F4780200F47C4097
:10304000C9000243C9B20A431A625E6222695A6128
:10305000274A1A6035E0217F264AE7E7227F45EAC2
:10306000026545F40035DD61EFE74288D969501EFD
:1030700021F47F4222F0100242EA0022DA610125A7
:10308000154CE36943F02003E361E3699B0613D524
:1030900000F020F9F9E7DA694188257F22F47F42C0
:1030A00022F01002013942F01002FF3D42EA0122F3
:1030B00018BF0125DA61E3E71023A36015B10C4BBB
:1030C0002360F8BD054BFBE7237F45EA036545F424
:1030D0000035014BC7E700BF00B00240010201000C
:1030E000C50A0208740B0208FA0A02080A00020064
:1030F000010202000900020010B5887F0C46FFF7AC
:1031000019FF254B5863A18AE28A42EA01425A64B8
:103110002269DA63628BA18A521A1A642268082A29
:1031200020D1A18A628B521A9A61A18A628B521AAB
:103130001A615862217F194A42EA0162DA61E16844
:103140000A02480102F4780200F47C40C9000243FC
:10315000C9B20A431A6222695A612269DA60104AC6
:103160001A6010BD0022D8611A61A27FE1681AB905
:103170009963094B0B4AF3E70A02480102F478020B
:1031800000F47C40C900C9B202430A43217F42EAED
:1031900001629A63EDE700BF00B002400900010040
:1031A0000102020001020300054B0360054B4FF0D2
:1031B0008062C3F88820BFF34F8FBFF36F8F7047D3
:1031C0002C0B020800E100E010B50446FFF7ECFF0D
:1031D00020464FF442611AF017FD204610BD000052
:1031E00070B505462C460A4B0C30002668602E72DE
:1031F0006E7244F8203B6022214607F07BFE05F505
:103200004263E6602034A342FBD1284670BD00BF74
:103210002C0B0208012108B50022084605F08CFCA1
:103220000A4B186028B90A4B0A4A27210A481BF0A2
:10323000CFFB00220421012005F048FD074B186058
:1032400018B9074B034A2B21F0E708BD8402002080
:103250004D0C0208010D0208960C020880020020A5
:10326000BF0C0208024B4FF0FF31186805F0BABCE2
:1032700084020020014B186805F0F0BC8402002095
:10328000024B0021186805F0ADBC00BF840200208D
:10329000FFF7F0BF03480449006800231A4605F011
:1032A0005BBD00BF800200200400002013B5084C65
:1032B00000231A4601A9206805F090FD4FF0FF3366
:1032C000002201A9206805F089FD02B010BD00BFF1
:1032D0008002002005F012BC704770477047012043
:1032E000704714207047142303FB01000830704717
:1032F000142303FB010008307047012070474FF48E
:10330000956070474FF4956303FB010008307047E8
:103310004FF4956303FB01000830704701207047AC
:103320001020704700EB01100830704700EB0110CF
:10333000083070470846FEF751BE000010B5034B39
:103340000360044606F0ECF8204610BDA00D02080C
:1033500010B50446FFF7F2FF20461C211AF054FC7A
:10336000204610BD10B5034B0360044606F0D8F8A4
:10337000204610BD6C0D020810B50446FFF7F2FFA1
:1033800020464FF496611AF03FFC204610BD000025
:1033900010B5034B0360044606F0C2F8204610BD8A
:1033A000380D020810B50446FFF7F2FF2046182139
:1033B0001AF02AFC204610BD10B5084B03600446E5
:1033C00000F2DC40FFF7BAFF04F12C00FFF7CAFF60
:1033D00004F11400FFF7DCFF204610BDD40D0208F5
:1033E00010B50446FFF7E8FF204640F254611AF09A
:1033F0000BFC204610BD00002DE9F341FFF744FB14
:103400000546FFF745FB0024014623462846224691
:1034100000940EF00DFD274B274A284D1A602046D8
:10342000FFF7C6FB26480EF045FC2B78BFF35B8FF9
:10343000DB0738D428461AF0BEFB002833D0214CD5
:10344000214B236004F2FC4604F1140004F12C0823
:1034500004F2DC476060C4F80880E760266106F08B
:1034600061F81A4B6361404606F05CF8184BE36262
:10347000384606F057F8174BC4F8DC3404F59F6063
:10348000FDF7AEFA224604F59F613046FDF7D4FB06
:103490003046FEF7A3FD28461AF099FB0E4A0F4965
:1034A00020461AF0ACFB0E4802B0BDE8F04100F037
:1034B000D1B800BF90A30020801500208802002012
:1034C000080000208C020020D40D0208380D0208EC
:1034D0006C0D0208A00D020800000020B93300089E
:1034E00004150020014800F0B7B800BF0415002003
:1034F00010B5042104461AF087FB204610BD10B514
:10350000782104461AF080FB204610BD10B57C21BE
:1035100004461AF079FB204610BD0000F8B5394C7E
:10352000394D3A4F3A4B3B492B60224628461AF018
:1035300066FB394E3846FFF753FE22463749384678
:103540001AF05DFB304611F0EDFC2246344930465E
:103550001AF055FB2246334933481AF050FB3348E2
:10356000334941663349C56000230122C0E9017631
:10357000C0E90433C0E90633C0E90833038580F8A5
:103580002A30C3620386C0E90E33C0E9103380F8E5
:10359000483080F8492080F84A3080F84B30C0E944
:1035A0001333C0E91533C0E9173380F8683080F869
:1035B000693080F86A3080F86B3080F86C300860D1
:1035C0001D491E4E0367F0250D804FF4A071318018
:1035D0001B4E80F8743080F8753080F87630337088
:1035E000184B80F877201D80174B80F878201980C1
:1035F000164B80F83420036022461549BDE8F84098
:103600001AF0FDBA00000020E0080020E4080020C5
:10361000B40E0208D932000884150020A931000830
:10362000DB320008452A00080800002004150020AD
:103630000100000134A3002026A3002028A30020BD
:103640002AA300202CA300202EA30020E80D0208AE
:10365000DD320008FFF73EBB08B5036804469B6FE8
:103660009847236820461B6F9847FFF71FFE236883
:1036700020469B6E9847292000F0E8FBFFF716FED6
:10368000236820469B6E9847F8E7FFF715BBFFF7C6
:1036900019BBFFF75FBBFFF7EBBAFFF7A3BBFFF761
:1036A000ABBBFFF7EFBA06F0A3BC7047704770479B
:1036B00038B50C4B0C4C18800C4B82201980636879
:1036C000984740F6110398420AD1094D23682C60AF
:1036D000822098472B688220DB689847002038BDFD
:1036E0000120FCE7FC15002024000020FE1500202E
:1036F000001600204FF4A071F020FFF7D9BF0000A2
:10370000F7B52C4D2B6804461B698220984780B280
:10371000208000284BD02B680DF106025B6901A9BF
:1037200082209847BDF80630A3F5B4739BB20B22F4
:10373000B3FBF2F333B1204A12889A423CBF02F144
:10374000FF339BB2BDF8042040F6B8318A4295BFE2
:10375000C2F57162C2F56D620E320832ADF8042016
:10376000BDF804100F22B1FBF2F131B1134A1288F7
:103770008A423CBF02F1FF3189B2114E114D3068CF
:103780002F6882B2814288BF8A1AB8B298BF521A93
:10379000BB428CBF181AC01A92B280B20244052AEA
:1037A000C4BF31602B60336863802B68A38003B093
:1037B000F0BD00BF00160020FE150020FC15002003
:1037C000041600200816002037B568460D4614463A
:1037D000FFF796FFBDF8000030B1BDF802302B6056
:1037E000BDF804302360012003B030BD054BD3F891
:1037F000882042F47002C3F888204FF000629A607B
:10380000704700BF00ED00E030B5014689B00022EE
:10381000362002F0C3F8362002F0F4F80025154BEC
:1038200002951A6C144C42F010021A641B6C03F0DF
:103830001003029301A903A8029B01F0C5F801F04F
:10384000B3F80E4B236040F2E733E36040000C4BCB
:10385000B0FBF3F00138606020462561A56001F0FF
:10386000F3F920B9204601F0CEF809B030BD0120AF
:10387000FBE700BF0038024038A4002000100040E1
:1038800040420F0007B5064B02A91B6821F8020D44
:103890000122044802F024FB03B05DF804FB00BFE2
:1038A00014000020CCA4002070B53024A0B0224623
:1038B000002108A81BF007F91422002103A81BF01F
:1038C00002F92246002114A81BF0FDF80024254B24
:1038D00001941A6C42F080521A641B6C03F08053FE
:1038E0000193019B204B02941A6842F440421A60F3
:1038F0001B6803F4404302930922029B4FF4803378
:10390000CDE9082302250123CDE90D354FF48001CF
:103910000823CDE90F1304264FF4A87308A8CDE9B6
:103920001135139600F0CEFD0F23CDE903354FF48A
:10393000A0504FF48053CDE90603052103A8059458
:1039400000F094FF28231493C02318934FF40035FC
:103950004FF4007314A81A96CDE91D5303F006F82E
:1039600020B070BD003802400070004080B59CB0AF
:1039700002F0BCFFFFF798FF142200210FA80024DB
:103980001BF0A1F8C54B01941A6BC548C54D42F018
:1039900004021A631A6B02F004020192019A029463
:1039A0001A6B42F020021A631A6B02F02002029294
:1039B000029A03941A6B42F080021A631A6B02F0A7
:1039C00080020392039A04941A6B42F001021A6374
:1039D0001A6B02F001020492049A05941A6B42F0E9
:1039E00002021A631A6B02F002020592059A06940B
:1039F0001A6B42F040021A631A6B02F04002069200
:103A0000069A07941A6B42F010021A631A6B02F0BE
:103A100010020792079A08941A6B42F008021A6380
:103A20001B6B03F00803089322460421089B02F055
:103A30007BF9224680219C4802F076F922464FF419
:103A400040519A4802F070F9012602274FF004080D
:103A50000FA993481194CDE90F86129702F07EF8D2
:103A600080230FA99048CDE90F36CDE9114402F02B
:103A700075F80FA94FF440538C48CDE90F36CDE9C6
:103A8000114702F06BF88A488A4B036003F09CF8F8
:103A9000894A8A4B2C62C5E9002328464FF48043AB
:103AA000C5E90434C5E90244C5E9064401F0BCFA9D
:103AB0001021284601F01BFF2146284601F039FF5E
:103AC0007F48804984624FF48273C0E900134FF449
:103AD00000751823C0E906530A237B4DC362C0E971
:103AE0000244C0E90444C0E9084402F0B9F9774B44
:103AF0000F974FF0100CC5E900364023C5E904C309
:103B00004FF4C073C5E906344FF40063C5E90834C7
:103B10004FF40053AB624FF0030A07230FA9284666
:103B2000CDE9103812934FF00809C5E90248CDE9F4
:103B300013A7159700F07CFC4FF6FF720AA92846E0
:103B4000CDE90B9609940A960D9400F091FC30464D
:103B500002F0F8FE4FF6FF720AA92846CDE90A796D
:103B6000CDE90C6400F084FC4FF6FF720AA92846E8
:103B7000CDE90AA9CDE90C8400F07AFC4FF40C736E
:103B80000993099B0D934FF6FF720AA92846CDE9C8
:103B90000A890C9600F06CFC40F26A51284600F04D
:103BA0007EFC342221460FA81AF08DFF484D494B68
:103BB0002C61C5E900340923C5E905361D2340F20F
:103BC0000D1EC5E9073A40F24313C5E909E340F287
:103BD000171840F24713C5E90B83C5E90244AC86C8
:103BE00085F83640284602F05BFD4FF48069F022EC
:103BF00005214FF4A073CDE910244FF0FF08CDE963
:103C00001691CDE918420FA922462846CDE9123770
:103C1000314D1A930F94CDE91484ADF86C408DF8B2
:103C20006E4002F01AFE2D4B2B601B6898472B68E4
:103C30002B4DDB6898472B4BC5E90A47C5E90C4477
:103C40002846C5E90034C5E9027402F07BFB314621
:103C5000284602F037FC142221460AA81AF033FF46
:103C6000282221460FA8204D00941AF02CFF1F4B4C
:103C7000AC61C5E9003428467F23C5E90238C5E9AF
:103C8000044401F055FC42F60D0322460AA92846D9
:103C9000ADF828308DF82A402AE000BF00380240F5
:103CA0000008024078A4002000000240000C0240FE
:103CB00024A5002000300240005C0040A0860100E6
:103CC000CCA40020005001404CA60020400100A0E0
:103CD0002CA50020006801400C1600204C0000209C
:103CE000F8A5002000B00240D4A500200028004024
:103CF000CDE90D4401F07FFC1CA9154B41F8703D46
:103D00002246284601F0ECFC4FF0004322460FA962
:103D1000CDE9143428464FF480731893ADF83C4035
:103D20008DF83E401094CDE9124416948DF85C60F5
:103D300001F039FD02F058FF04F050FE054A064834
:103D4000214604F085FE054B186004F061FEFEE795
:103D500001010C15DC0E0208ED6B0008F4A5002033
:103D60007047704710B586B006AC074B04F8012DBC
:103D70001B68029301230A46CDE90043014603482C
:103D800001F002FA06B010BD1000002078A4002057
:103D90007FB506AA002302F8013D084B1B68029379
:103DA0000123CDE900230A460146054801F080FAC7
:103DB0009DF8170007B05DF804FB00BF100000205D
:103DC00078A400201FB5084C24680092CDE9013486
:103DD0000A4601230146054801F06AFA003018BF7F
:103DE000012004B010BD00BF1000002078A4002006
:103DF00002F0A8BD10B5064C00222046042101F0B7
:103E000093FF204601220421BDE8104001F08CBF41
:103E10000008024038B50B4C054601224FF4005112
:103E2000094801F081FF00220421204601F07CFFB7
:103E30002846FFF727FD204601220421BDE838402F
:103E400001F072BF00080240000C024038B50B4C74
:103E5000054600224FF40051094801F065FF002299
:103E60000421204601F060FF2846FFF70BFD2046A5
:103E700001220421BDE8384001F056BF000802408D
:103E8000000C0240F7B5144C144D07460E46204670
:103E90000022042101F048FF00224FF4005128467F
:103EA00001F042FF3846FFF7EDFC0D4B0D481B6853
:103EB000324601A902F0ACF9284601224FF4005124
:103EC000019E01F031FF20460122042101F02CFF68
:103ED000304603B0F0BD00BF00080240000C0240B5
:103EE00014000020CCA4002002F02CBD0268034B7B
:103EF0009A4201D102F014BD704700BF001000408B
:103F00007047FEE7FEE7FEE7FEE77047014800F076
:103F10008FBD00BF38A40020014802F03DBC00BFA7
:103F20002CA50020014802F03DBA00BFF8A50020F2
:103F300008B50A4B1968024609B909491960186899
:103F4000694602448A4206D91AF06EFD0C230360CA
:103F50004FF0FF3008BD1A60FCE700BF10160020CC
:103F6000C8A6002082B00E4B00220092596C41F48A
:103F700080415964596C01F480410091009901928B
:103F8000196C41F0805119641B6C03F0805301934C
:103F9000019B0F216FF0010002B001F0FFBC00BFD8
:103FA000003802400268094B9A4282B00BD10023CC
:103FB0000193074B1A6B42F480521A631B6B03F494
:103FC00080530193019B02B0704700BF0030024054
:103FD0000038024007B50F4B02689A4216D1002202
:103FE000A3F5F0430192196B41F4000119631B6BB7
:103FF00003F40003019305215A20019B01F0CEFC3C
:104000005A2003B05DF804EB01F0FCBC03B05DF88E
:1040100004FB00BF00B002402DE9F043044689B024
:104020001422002103A81AF04EFD2268244B9A4264
:1040300043D1244C244800250095236B43F004030E
:104040002363236B03F004030093009B0195236B10
:1040500043F001032363236B03F001030193019BEE
:104060004FF012094FF400734FF0010803270426A4
:1040700003A9CDE90339CDE90587079601F06EFD67
:104080004FF4807303A911480796CDE90339CDE9B0
:10409000058701F063FD0295236C43F4000323645C
:1040A000236C03F400030293029B236A43F400038E
:1040B0002362236A23F40003236209B0BDE8F0837E
:1040C000005C00400038024000080240000002404E
:1040D000F0B504468DB01422002107A81AF0F3FCB5
:1040E0002268574B9A4240F0A88003F550430025C0
:1040F00000955A6C534842F080625A645A6C02F040
:1041000080620092009A01951A6B42F020021A63B5
:104110001A6B02F020020192019A02951A6B42F08A
:1041200001021A631A6B02F001020292029A0395CD
:104130001A6B42F002021A631A6B02F00202039237
:10414000039A04951A6B42F040021A631A6B02F04C
:1041500040020492049A05951A6B42F004021A6315
:104160001A6B02F004020592059A06951A6B42F04A
:1041700008021A631B6B03F00803069302240E2641
:10418000069B0A944FF4806307A9CDE907340B9688
:1041900001F0E4FC41F6580307A92B480B96CDE942
:1041A00007340927CDE9095401F0D8FC032307A9F6
:1041B00026480B97CDE90734CDE9095401F0CEFC30
:1041C0004FF4706307A921480B96CDE90734CDE978
:1041D000095401F0C3FC4FF40C6307A91C480B966B
:1041E000CDE90734CDE9095401F0B8FCC02307A993
:1041F00018480B96CDE90734CDE9095401F0AEFC1F
:10420000082307A914480B96CDE90734CDE90954D2
:1042100001F0A4FC4FF4A05307A90D480B97CDE97A
:104220000734CDE9095401F099FC58202A460521AC
:1042300001F0B4FB582001F0E5FB0DB0F0BD00BF6C
:1042400000680140001402400000024000040240E7
:104250000018024000080240000C02400268034BB4
:104260009A4202BF024B01221A60704700280040A8
:104270003C0E474210B5044688B01422002103A822
:104280001AF021FC2268144B9A4223D103F56843AB
:10429000002101915A6C114842F480125A645A6C00
:1042A00002F480120192019A02911A6B42F02002EC
:1042B0001A631B6B03F020030293029B4FF460729E
:1042C00002230321CDE903230523CDE9061303A926
:1042D00001F044FC08B010BD005001400014024041
:1042E0002DE9F04186B01422002101A81AF0EBFB61
:1042F0002B4B1C68002C4FD14FF00108C3F80080F5
:10430000284B00949A6B284842EA08029A639B6BF8
:1043100003EA08030093022703260C25009B01A94A
:104320004FF63F03CDE90137CDE9046501F016FCF6
:1043300001A91E480595CDE90187CDE9034601F0A5
:104340000DFC48F2331301A919480595CDE9013751
:10435000CDE9034601F002FC4FF6837301A915482D
:104360000595CDE90137CDE9034601F0F7FB4CF2A5
:10437000037301A910480595CDE90137CDE903463E
:1043800001F0ECFB602301A90C480595CDE901374C
:10439000CDE9034601F0E2FB06B0BDE8F08100BFC5
:1043A00014160020003802400014024000080240A9
:1043B0000018024000100240000C024000040240BD
:1043C0000120704708B51AF02FFB162303604FF049
:1043D000FF3008BD08B51AF027FB16230360FEE77F
:1043E00070B50E4615460C46A31B9D4201DC2846BF
:1043F00070BDAFF3008004F8010BF5E770B50E4611
:1044000015460C46A31B9D4201DC284670BD14F8DE
:10441000010BAFF30080F5E74FF0FF3070474FF42A
:1044200000534B6000207047012070470020704708
:1044300038B50D460446C8B190F82C3003F0FF02A1
:104440001BB980F82D20FFF74BFF022384F82C3096
:10445000211D206801F0E4FA62682068294601F015
:1044600015FB012384F82C30002038BD0120FCE727
:1044700038B5044690F82C00C0B202280D460DD085
:10448000022384F82C30206801F03DFB2B68022BBE
:104490000CBF0523012384F82C30002038BD10B553
:1044A000044690F82C00C0B2022809D0022384F8F8
:1044B0002C30206801F04CFB012384F82C300020C4
:1044C00010BD00002DE9F341044608B9012041E088
:1044D0000368DD0710D4236898075AD423681A07A5
:1044E00000F19C8023685B0700F1BA80A069002876
:1044F00040F01C8100202DE0A44B9A6802F00C02D1
:10450000042A07D09A6802F00C02082A0AD15B68D4
:10451000590207D59D4B1B689A03DCD56368002BB5
:10452000D9D1D3E76268994BB2F5803F15D11A68AB
:1045300042F480321A606368F3B102F0FDF9934DE2
:1045400006462B689B03C6D402F0F6F9801B64284C
:10455000F7D9032002B0BDE8F081B2F5A02F1A68A8
:1045600003D142F480221A60E1E722F480321A601B
:104570001A6822F48022DDE702F0DEF9834D064658
:104580002B689F03A7D502F0D7F9801B6428F7D9C1
:10459000DFE77E4B9A6812F00C0F07D09A6802F0A2
:1045A0000C02082A11D15B685E020ED4774B1A68A0
:1045B000950702D5E268012A88D11A68216922F09C
:1045C000F80242EAC1021A6088E7E268704BB2B1B1
:1045D00001221A6002F0B0F96C4D06462B6898076C
:1045E00007D52B68226923F0F80343EAC2032B6046
:1045F00074E702F0A1F9801B0228EFD9A9E71A603D
:1046000002F09AF9614D06462B6899077FF566AF6F
:1046100002F092F9801B0228F6D99AE762695D4B95
:104620007AB101221A6002F087F9584D06466B6F85
:104630009F073FF557AF02F07FF9801B0228F6D99C
:1046400087E71A6002F078F9504D06466B6F9807BD
:104650007FF548AF02F070F9801B0228F6D978E7A1
:104660004A4B1A6C12F080522BD101921A6C42F014
:1046700080521A641B6C03F080530193019B012646
:10468000454D2B68D9051ED5A268404B012A2AD179
:104690001A6F42F001021A67A368002B37D002F0AC
:1046A0004BF93A4D074641F288382B6F9B0728D5C6
:1046B000002E3FF41BAF354A136C23F08053136474
:1046C00014E70026DCE72B6843F480732B6002F0CC
:1046D00033F907462B68DA05D6D402F02DF9C01B52
:1046E0000228F7D935E7052A1A6F03D142F00402F0
:1046F0001A67CDE722F001021A671A6F22F004024E
:10470000C9E702F019F9C01B4045CED921E702F0F4
:1047100013F91E4D074641F288382B6F9807C7D50D
:1047200002F00AF9C01B4045F7D912E7174DAB68F4
:1047300003F00C03082B46D0184E002302283360E8
:1047400034D102F0F9F807462B68990128D4D4E94E
:1047500007321343626A43EA8213E26A43EA02635E
:10476000A26A0A4C5208013A43EA02436B600123F1
:10477000336002F0E1F8054623689A013FF5BAAECE
:1047800002F0DAF8401B0228F6D9E2E600380240CF
:1047900000004742800E47420070004060004742E0
:1047A00002F0CAF8C01B0228CED9D2E602F0C4F843
:1047B00004462B689B017FF59DAE02F0BDF8001BFF
:1047C0000228F6D9C5E601283FF4C4AE6868E3695B
:1047D00000F480029A427FF479AE226A00F03F032F
:1047E00093427FF473AE626A47F6C073034093420C
:1047F0007FF46CAEA26A00F4403393427FF466AE5D
:10480000E36A00F07060C01A18BF0120A2E600BF82
:1048100008B513498B6803F00C03042B03D0082B55
:1048200003D0104800E0104808BD4A684B6849684A
:1048300013F4800314BF0C480A48C1F3881118BF51
:10484000002302F03F02A1FB0001FBF7D1FC044B67
:104850005B68C3F3014301335B00B0FBF3F0E3E7B4
:10486000003802400024F40000127A002DE9F041E3
:104870000D46044610B90120BDE8F081454B1A6889
:1048800002F00F028A422AD323689E072FD423689E
:10489000D90743D43F4B1A6802F00F02AA4268D8E6
:1048A00023685A076ED423681B0707D53A4A216943
:1048B000936823F4604343EAC1039360FFF7A8FFC2
:1048C000354B364A9B68C3F30313D35CD840344B53
:1048D0001860344B1868FEF797FF0020CCE7CAB287
:1048E0001A701B6803F00F038B42C4D1CCE7580742
:1048F00041BF294A936843F4E05393602368264AF2
:1049000013F0080F1EBF936843F4604393609368ED
:10491000A16823F0F0030B439360B8E762681E4B75
:10492000012A1CD11B6813F4003FA4D01A4EB368AF
:1049300023F003031343B36001F0FEFF41F2883814
:104940000746B368626803F00C03B3EB820FA1D093
:1049500001F0F2FFC01B4045F3D903208CE7911E04
:1049600001291B6802D813F0007FDEE713F0020F65
:10497000DBE7EAB21A701B6803F00F03AB427FF467
:104980007AAF8DE7044AE168936823F4E0530B4360
:10499000936088E7003C024000380240C40E0208E1
:1049A0000C0000201C000020044B054A9B68C3F348
:1049B0008223D35C034A1068D84070470038024015
:1049C000D40E02080C0000200F2303600B4B9A68E2
:1049D00002F0030242609A6802F0F00282609A6874
:1049E00002F4E052C2609B68DB0803F4E053036109
:1049F000034B1B6803F00F030B6070470038024045
:104A0000003C024070470268D36843F00103D36062
:104A100003689A6802F00702062A1EBF1A6842F06D
:104A200001021A6000207047704770477047704756
:104A300010B503681A69910704460FD5DA68920722
:104A40000CD56FF002021A610123037703689B699A
:104A50009B077AD0FFF7E9FF0023237723681A69C1
:104A6000500711D5DA6851070ED56FF004021A61AC
:104A70000223237723689B6913F4407F20466AD082
:104A8000FFF7D3FF0023237723681A69120710D595
:104A9000DA6810070DD56FF008021A610423237736
:104AA0002368DB69990720465BD0FFF7BEFF002330
:104AB000237723681A69D20611D5DA68D0060ED595
:104AC0006FF010021A61082323772368DB6913F45F
:104AD000407F20464BD0FFF7A8FF002323772368B1
:104AE0001A69D10708D5DA68D20705D56FF0010237
:104AF0001A612046FFF7FAF923681A69100608D5EB
:104B0000DA68110605D56FF080021A61204600F0C0
:104B100032FF23681A69520608D5DA68500605D5AF
:104B20006FF040021A612046FFF781FF23681A697F
:104B3000910622D5DA6892061FD56FF020021A611D
:104B40002046BDE8104000F015BFFFF76DFF20467E
:104B5000FFF76CFF80E7FFF767FF2046FFF766FF70
:104B600090E7FFF761FF2046FFF760FF9FE7FFF741
:104B70005BFF2046FFF75AFFAFE710BD304A0368DE
:104B8000904212D0B0F1804F0FD0A2F57C429042FB
:104B90000BD002F58062904207D002F5806290420D
:104BA00003D002F57842904219D14A6823F070038D
:104BB0001343234A904229D0B0F1804F26D0A2F56A
:104BC0007C42904222D002F5806290421ED002F5D3
:104BD000806290421AD002F57842904216D0194A6B
:104BE000904213D002F5806290420FD002F58062AD
:104BF00090420BD0A2F59832904207D002F5806225
:104C0000904203D002F58062904203D1CA6823F437
:104C1000407313434A6923F08003134303608B6896
:104C2000C3620B688362064B984203D003F580632E
:104C3000984201D10B69036301234361704700BFB0
:104C4000000001400040014010B50446A0B190F8BA
:104C50003D3003F0FF021BB980F83C20FFF7D2FE85
:104C6000022384F83D302068211DFFF787FF0123D0
:104C700084F83D30002010BD0120FCE701684B693D
:104C800013F480634FF0000210D06FF480634B6127
:104C90002023026380F83D3080F83E20036C80F8CA
:104CA0003C2043F00403036401207047184670471A
:104CB0002DE9F0410446164698468FB2256868698A
:104CC00037EA000018D06B695A0517D52B6843F4F2
:104CD00000732B6023686FF480625A6100232022E6
:104CE000236384F83D2084F83E30226C42F00402B5
:104CF000226484F83C300120BDE8F081731CDED0D2
:104D000001F01AFEA0EB0800B04201D8002ED5D168
:104D100000232022236384F83D2084F83E30226C57
:104D200042F02002E4E770B504460D4616462368BB
:104D30005B695B0701D5002070BD2046FFF79EFF31
:104D4000A8B96A1CF3D001F0F7FD801BA84201D876
:104D5000002DECD100232022236384F83D2084F829
:104D60003E30226C84F83C3042F020022264012064
:104D7000E2E770B504460D4616462068436913F015
:104D8000400301D0002010E04269D2060ED56FF03A
:104D9000100242612022236384F83D2084F83E30D3
:104DA000226C226484F83C30012070BD01F0C4FD07
:104DB000801BA84201D8002DDFD1002320222363CD
:104DC00084F83D2084F83E30226C42F02002E8E76F
:104DD0002DE9F843089E044690461F464FEA1149C4
:104DE0008DB22168B9F1010F0CBF4B698B6935EAAF
:104DF00003030CBF01230023984501D0002016E0D7
:104E00007B1CEFD001F098FD801BB84201D8002F29
:104E1000E7D100232022236384F83D2084F83E302C
:104E2000226C84F83C3042F0200222640120BDE86C
:104E3000F88370B504460D46164623685B691B0669
:104E400001D5002070BD2046FFF718FFA8B96A1CE5
:104E5000F3D001F071FD801BA84201D8002DECD1E8
:104E600000232022236384F83D2084F83E30226C06
:104E700084F83C3042F0200222640120E2E7000086
:104E80002DE9FF41154602680B9E9846136843F4CE
:104E9000807313600F460A9B009600224FF00111A9
:104EA0000446FFF795FF236838B11B68DB0502D580
:104EB0004FF40073236403200AE007F0FE071F612C
:104EC0000A9A194933462046FFF7F2FE18B101202D
:104ED00004B0BDE8F081236803905A6903929B698E
:104EE000039332460A99039B2046FFF7A2FF40B185
:104EF000236C042B01BF2268136843F40073136012
:104F0000E5E7B8F1010F236802D1EDB21D61DFE7DB
:104F10002A0A1A610A9932462046FFF78AFF0028BA
:104F2000E6D12368F1E700BF020001002DE9FF414F
:104F3000164602680B9D9846136843F4806313601D
:104F40000268136843F4807313600F460A9B009550
:104F500000224FF001110446FFF73AFF236848B1E1
:104F60001B68DB0502D54FF400732364032004B0F3
:104F7000BDE8F081FFB207F0FE021A6129490A9AE2
:104F80002B462046FFF794FE08B10120EFE7236887
:104F900003905A6903929B6903932A460A99039BDB
:104FA0002046FFF746FF40B1236C042B01BF226867
:104FB000136843F400731360E7E7B8F1010F236847
:104FC00025D1F6B21E612A460A992046FFF731FF25
:104FD00002460028E8D121680B6843F480730B6017
:104FE00020460A9B00954FF00111FFF7F1FE236860
:104FF0000028B5D147F001071F610A9A09492B46DD
:105000002046FFF755FE003018BF0120AFE7320AF7
:105010001A610A992A462046FFF70BFF0028C3D1E0
:105020002368CEE70200010070B5044608B90120EC
:1050300070BD90F83D3003F0FF021BB980F83C20B2
:10504000FEF7EAFF2268242384F83D30136823F03A
:10505000010313602268136843F40043136022685D
:10506000136823F400431360FFF79EFC424B626811
:105070009A4294BF414B424B98428CBF002301237C
:10508000002BD4D122683F495368B0FBF1F123F0E3
:105090003F030B4353606668374B25689E4288BFC9
:1050A0004FF496732A6A8ABF4B434B1C4FF47A71B4
:1050B00022F03F0284BFB3FBF1F3013313432B62B1
:1050C00021686368CA692C4D22F44F42AB4222F03A
:1050D000FF0200F1FF3035D85B00B0FBF3F0431C5A
:1050E000C3F30B03042B38BF04231343CB612168A4
:1050F000D4E907300A68034322F0C00213430B606F
:105100002168D4E903038A6822F40342034322F0AE
:10511000FF0213438B602168D4E90530CA6803435A
:1051200022F0FF021343CB602268136843F00103AF
:10513000136000202023206484F83D30206384F82D
:105140003E0075E7A56855B903EB4303B0FBF3F0E8
:10515000431CC3F30B036BB143F40043C5E71925AC
:105160006B43B0FBF3F0431CC3F30B0313B143F4E5
:105170004043BAE70123B8E7A08601007F841E0000
:10518000FF083D0040420F002DE9F74304469946D1
:105190000F4690460C9E01F0CFFB94F83D30202B3B
:1051A000054603D0022003B0BDE8F0830090192328
:1051B00001223D492046FFF70BFE0028F2D194F86A
:1051C0003C30012BEED0012384F83C3023681A6870
:1051D000D2075EBF1A6842F001021A6022681368A3
:1051E00023F400631360212384F83D30402384F8C6
:1051F0003E30002323640A9B6362BDF82C30638534
:10520000638D2385294BE362CDE900654B46424619
:1052100039462046FFF734FE00282DD00120C2E792
:10522000FFF707FE40B1236C042B01BF226813680F
:1052300043F400731360F1E7626A236812781A611D
:10524000616A628D4B1C6362238D013A92B2013B0D
:1052500062859BB222682385506940070CD55BB1FB
:105260004B781361636A01336362238D013B2385AD
:10527000638D013B9BB26385238D2A4631462046D0
:10528000002BCDD1FFF74FFD0028CCD12268136849
:1052900043F400731360202384F83D3084F83C000D
:1052A00084F83E007FE700BF020010000000FFFF0F
:1052B0002DE9F043044687B099460D469046109F6D
:1052C00001F03AFB94F83D30202B064604D002252D
:1052D000284607B0BDE8F0830090192301227849E1
:1052E0002046FFF775FD0028F1D194F83C30012BE2
:1052F000EDD0012384F83C3023681A68D0075EBFE4
:105300001A6842F001021A602268136823F40063ED
:105310001360222384F83D30402384F83E3000237C
:1053200023640E9B6362BDF83C306385638D2385E7
:10533000644BE3622946CDE900764B46424620465F
:10534000FFF7F4FD054608B10125C1E7228D23686A
:10535000B2B902905A6902929A690292029A1A6844
:1053600042F400721A60DFF86081238D002B2FD188
:10537000202284F83D2084F83C3084F83E30A7E7B2
:10538000012A0BD11A6822F480621A602368039004
:105390005A6903929A690392039AE0E7022A10D1AC
:1053A0001A6822F480621A602268136843F400636A
:1053B0001360236804905A6904929B690493049BC8
:1053C000D1E705905A6905929B690593059BCAE749
:1053D000032B58D8012B15D1324639462046FFF70A
:1053E000C8FC0028B0D123681A69636A1A70636A1E
:1053F00001336362238D013B2385638D013B9BB2A7
:105400006385B2E7022B00963B464FF0000241460F
:1054100020461AD1FFF7DCFC002895D122681368DA
:1054200043F40073136023681A69636A1A70626A2E
:10543000531C6362238D013B2385638D013B9BB22B
:10544000638523681B695370D1E7FFF7C1FC0246EF
:1054500000287FF479AF21680B6823F480630B6028
:1054600023681969636A1970636A0096013363627D
:10547000238D013B2385638D013B9BB263854146B0
:105480003B462046C6E7324639462046FFF771FCC8
:1054900000287FF459AF23681A69636A1A70626A38
:1054A000531C6362238D013B2385638D013B9BB2BB
:1054B00063852368596949077FF557AFC2E700BF85
:1054C000020010000000FFFF0400010038B5026870
:1054D000D36823F0A003D360044601F02DFA0546FB
:1054E0002368DB689B0601D5002038BD01F024FA53
:1054F000401BB0F57A7FF3D90320F6E738B503688F
:10550000DA685206044601D5002038BD4FF0FF325C
:10551000DA6001F011FA05462368DB685B06F3D414
:1055200001F00AFA401BB0F57A7FF5D90320ECE7C9
:1055300038B50446C0B1437F03F0FF0213B90277C8
:10554000FEF78CFE022363772368CA225A6223681F
:1055500053225A622046FFF7D1FF2268054628B140
:10556000FF23536204236377012537E0936823F414
:10557000E00323F0400393602069636822680343DB
:105580006069916803430B4393602368E2681A6182
:105590002268A168136943EA014313612268D36852
:1055A00023F08003D36023689B689B0607D42046C2
:1055B000FFF78CFF18B12368FF225A62D2E72268F6
:1055C000136C23F4802313642268A169136C0B43CA
:1055D00013642368FF225A6201236377284638BD8B
:1055E0000023092803D840EA0310C0B270470A38E4
:1055F0000133C0B2F5E7F8B5037F012B04460F462F
:105600004FF0020630D0012303770368467708780D
:105610004E788D789B684ABB13F0400308BFCB706F
:10562000FFF7DEFF01463046FFF7DAFF0246284665
:10563000FFF7D6FFFB7840EA034040EA014040EA2A
:1056400002252368CA225A62236853225A622046DE
:10565000FFF754FF23680646A8B1FF225A620423CD
:1056600063770023237701263046F8BD13F040030B
:105670004FEA062608BFCB7046EA00402843CD78A3
:1056800040EA0545DDE705F07F3525F0FE451D6064
:105690002268936823F4802393602268D7E903305B
:1056A000916803430B4393602268D36823F080031F
:1056B000D36023689B689B060AD42046FFF706FF49
:1056C00030B12368FF225A62042363772677CAE742
:1056D0002368FF225A620123637700232377C3E7FD
:1056E000F8B5037F012B05464FF0020631D00123A8
:1056F000037746774B78C8788E780C78002A4BD1A0
:10570000DA0603D523F010030A334B70FFF768FF66
:1057100007464878FFF764FF02463046FFF760FF10
:1057200040EA443040EA074040EA02242B68CA229B
:105730005A622B6853225A622846FFF7DFFE2B6815
:10574000064640B1FF225A6204236B7700232B7771
:1057500001263046F8BD24F07F4424F0C0045C608C
:105760002A68D36823F08003D3602B689B689B066C
:105770000AD42846FFF7AAFE30B12B68FF225A62EE
:1057800004236B772E77E3E72B68FF225A6201230D
:105790006B7700232B77DCE71B0243EA00403043A2
:1057A00040EA4434C2E72DE9F047037F012B044669
:1057B0004FF0020079D001232377236860770878BF
:1057C00091F801908D7891F82080CE694F699B689F
:1057D000002A4CD113F0400308BFCB70FFF700FF45
:1057E00082464846FFF7FCFE02462846FFF7F8FED1
:1057F00081464046FFF7F4FECD783E4346EA054534
:1058000045EA090545EA0A4545EA022545EA0065F3
:105810008B694E681E432368CA225A62236853224A
:105820005A624B6AB3F5807F23689A683FD122F4AD
:1058300080729A602268936823F48053936001F029
:105840007BF880462268D76817F0010720D0D56121
:1058500023685E642268936843F4807393602368CE
:10586000FF225A6200200123637720771DE013F0A6
:10587000400346EA070608BFCB70354345EA0045BA
:10588000C87845EA092545EA004545EA0865BFE7C5
:1058900001F052F8A0EB0800B0F57A7FD2D9236866
:1058A000FF2203205A6260772777BDE8F08722F451
:1058B00000729A602268936823F40053936001F0A9
:1058C0003BF880462268D76817F0020707D01562B8
:1058D00023689E642268936843F40073BEE701F076
:1058E0002BF8A0EB0800B0F57A7FEBD9D7E710B51D
:1058F00090F83D30DBB2202B19D10468242280F8C7
:105900003D20226822F0010222600468626A22F0CF
:10591000100262620468626A1143616201680A6887
:1059200042F001020A6080F83D30002010BD0220E4
:10593000FCE730B590F83D20D2B2202A18D1056896
:10594000242380F83D302C6824F001042C60046886
:10595000656A4FF6F0732B400B439BB2636201689C
:105960000B6843F001030B6080F83D20002030BD40
:105970000220FCE770477047074AD36823F4E063CE
:105980001B041B0C43F0BF63000243F4003300F41C
:10599000E0600343D360704700ED00E070B5174B43
:1059A000DC68C4F30224C4F10705042D04F10403E8
:1059B00028BF04254FF0FF36062B06FA05F38CBFEF
:1059C000033C002421EA0303A34006FA04F422EA7C
:1059D0000404002843EA0403A8BF00F160404FEA32
:1059E0000313BCBF00F00F00054ADBB2AABF00F5ED
:1059F0006140135480F8003370BD00BF00ED00E03B
:105A000014ED00E0002808DB4209012300F01F002C
:105A100003FA00F0014B43F82200704700E100E078
:105A20002DE9F041D1E907434A6AD1E90158D1E9AA
:105A300003ECD1E905760968012943EA0403124918
:105A400004680FD01A432A4342EA080343EA0E03CC
:105A500043EA0C033B43214033430B4303600020E4
:105A6000BDE8F08113434268114045EA080242EA6A
:105A70000E0242EA0C023A4324F4F8443243234330
:105A80000A4303604260EAE70080FFFFF0B5CB689D
:105A90000C688E680D695F1E4B6904F1FF3C4C6811
:105AA0008969013B1B05013C013E013D0139012A89
:105AB0004FEA04144FEA06264FEA05454FEA016112
:105AC00043EA07330CD043EA0C0323438268334391
:105AD0002B4302F070420B43134383600020F0BD60
